{
  "contractName": "Lesson7ERC20V3Factory",
  "abi": [
    {
      "inputs": [
        {
          "internalType": "address",
          "name": "cloneFactory",
          "type": "address"
        },
        {
          "internalType": "uint256",
          "name": "createFee",
          "type": "uint256"
        }
      ],
      "stateMutability": "nonpayable",
      "type": "constructor"
    },
    {
      "anonymous": false,
      "inputs": [
        {
          "indexed": false,
          "internalType": "uint256",
          "name": "newFee",
          "type": "uint256"
        }
      ],
      "name": "ChangeCreateFee",
      "type": "event"
    },
    {
      "anonymous": false,
      "inputs": [
        {
          "indexed": false,
          "internalType": "address",
          "name": "erc20",
          "type": "address"
        },
        {
          "indexed": false,
          "internalType": "address",
          "name": "creator",
          "type": "address"
        },
        {
          "indexed": false,
          "internalType": "uint256",
          "name": "erc20Type",
          "type": "uint256"
        }
      ],
      "name": "NewERC20",
      "type": "event"
    },
    {
      "anonymous": false,
      "inputs": [
        {
          "indexed": true,
          "internalType": "address",
          "name": "previousOwner",
          "type": "address"
        },
        {
          "indexed": true,
          "internalType": "address",
          "name": "newOwner",
          "type": "address"
        }
      ],
      "name": "OwnershipTransferPrepared",
      "type": "event"
    },
    {
      "anonymous": false,
      "inputs": [
        {
          "indexed": true,
          "internalType": "address",
          "name": "previousOwner",
          "type": "address"
        },
        {
          "indexed": true,
          "internalType": "address",
          "name": "newOwner",
          "type": "address"
        }
      ],
      "name": "OwnershipTransferred",
      "type": "event"
    },
    {
      "anonymous": false,
      "inputs": [
        {
          "indexed": false,
          "internalType": "address",
          "name": "account",
          "type": "address"
        },
        {
          "indexed": false,
          "internalType": "uint256",
          "name": "amount",
          "type": "uint256"
        }
      ],
      "name": "Withdraw",
      "type": "event"
    },
    {
      "stateMutability": "payable",
      "type": "fallback",
      "payable": true
    },
    {
      "inputs": [],
      "name": "_CLONE_FACTORY_",
      "outputs": [
        {
          "internalType": "address",
          "name": "",
          "type": "address"
        }
      ],
      "stateMutability": "view",
      "type": "function",
      "constant": true
    },
    {
      "inputs": [],
      "name": "_CREATE_FEE_",
      "outputs": [
        {
          "internalType": "uint256",
          "name": "",
          "type": "uint256"
        }
      ],
      "stateMutability": "view",
      "type": "function",
      "constant": true
    },
    {
      "inputs": [],
      "name": "_NEW_OWNER_",
      "outputs": [
        {
          "internalType": "address",
          "name": "",
          "type": "address"
        }
      ],
      "stateMutability": "view",
      "type": "function",
      "constant": true
    },
    {
      "inputs": [],
      "name": "_OWNER_",
      "outputs": [
        {
          "internalType": "address",
          "name": "",
          "type": "address"
        }
      ],
      "stateMutability": "view",
      "type": "function",
      "constant": true
    },
    {
      "inputs": [
        {
          "internalType": "address",
          "name": "",
          "type": "address"
        },
        {
          "internalType": "uint256",
          "name": "",
          "type": "uint256"
        }
      ],
      "name": "_USER_CUSTOM_MINTABLE_REGISTRY_",
      "outputs": [
        {
          "internalType": "address",
          "name": "",
          "type": "address"
        }
      ],
      "stateMutability": "view",
      "type": "function",
      "constant": true
    },
    {
      "inputs": [
        {
          "internalType": "address",
          "name": "",
          "type": "address"
        },
        {
          "internalType": "uint256",
          "name": "",
          "type": "uint256"
        }
      ],
      "name": "_USER_CUSTOM_REGISTRY_",
      "outputs": [
        {
          "internalType": "address",
          "name": "",
          "type": "address"
        }
      ],
      "stateMutability": "view",
      "type": "function",
      "constant": true
    },
    {
      "inputs": [
        {
          "internalType": "address",
          "name": "",
          "type": "address"
        },
        {
          "internalType": "uint256",
          "name": "",
          "type": "uint256"
        }
      ],
      "name": "_USER_STD_REGISTRY_",
      "outputs": [
        {
          "internalType": "address",
          "name": "",
          "type": "address"
        }
      ],
      "stateMutability": "view",
      "type": "function",
      "constant": true
    },
    {
      "inputs": [],
      "name": "claimOwnership",
      "outputs": [],
      "stateMutability": "nonpayable",
      "type": "function"
    },
    {
      "inputs": [
        {
          "internalType": "address",
          "name": "newOwner",
          "type": "address"
        }
      ],
      "name": "initOwner",
      "outputs": [],
      "stateMutability": "nonpayable",
      "type": "function"
    },
    {
      "inputs": [
        {
          "internalType": "address",
          "name": "newOwner",
          "type": "address"
        }
      ],
      "name": "transferOwnership",
      "outputs": [],
      "stateMutability": "nonpayable",
      "type": "function"
    },
    {
      "stateMutability": "payable",
      "type": "receive",
      "payable": true
    },
    {
      "inputs": [
        {
          "internalType": "address",
          "name": "_erc20_template_",
          "type": "address"
        },
        {
          "internalType": "uint256",
          "name": "totalSupply",
          "type": "uint256"
        },
        {
          "internalType": "string",
          "name": "name",
          "type": "string"
        },
        {
          "internalType": "string",
          "name": "symbol",
          "type": "string"
        },
        {
          "internalType": "uint8",
          "name": "decimals",
          "type": "uint8"
        }
      ],
      "name": "createStdERC20",
      "outputs": [
        {
          "internalType": "address",
          "name": "newERC20",
          "type": "address"
        }
      ],
      "stateMutability": "payable",
      "type": "function",
      "payable": true
    },
    {
      "inputs": [
        {
          "internalType": "address",
          "name": "_custom_erc20_template_",
          "type": "address"
        },
        {
          "internalType": "uint256",
          "name": "totalSupply",
          "type": "uint256"
        },
        {
          "internalType": "string",
          "name": "name",
          "type": "string"
        },
        {
          "internalType": "string",
          "name": "symbol",
          "type": "string"
        },
        {
          "internalType": "uint8",
          "name": "decimals",
          "type": "uint8"
        },
        {
          "internalType": "uint256",
          "name": "tradeBurnRatio",
          "type": "uint256"
        },
        {
          "internalType": "uint256",
          "name": "tradeFeeRatio",
          "type": "uint256"
        },
        {
          "internalType": "address",
          "name": "teamAccount",
          "type": "address"
        }
      ],
      "name": "createCustomERC20",
      "outputs": [
        {
          "internalType": "address",
          "name": "newCustomERC20",
          "type": "address"
        }
      ],
      "stateMutability": "payable",
      "type": "function",
      "payable": true
    },
    {
      "inputs": [
        {
          "internalType": "address",
          "name": "_custom_mintable_erc20_template_",
          "type": "address"
        },
        {
          "internalType": "uint256",
          "name": "initSupply",
          "type": "uint256"
        },
        {
          "internalType": "string",
          "name": "name",
          "type": "string"
        },
        {
          "internalType": "string",
          "name": "symbol",
          "type": "string"
        },
        {
          "internalType": "uint8",
          "name": "decimals",
          "type": "uint8"
        },
        {
          "internalType": "uint256",
          "name": "tradeBurnRatio",
          "type": "uint256"
        },
        {
          "internalType": "uint256",
          "name": "tradeFeeRatio",
          "type": "uint256"
        },
        {
          "internalType": "address",
          "name": "teamAccount",
          "type": "address"
        }
      ],
      "name": "createCustomMintableERC20",
      "outputs": [
        {
          "internalType": "address",
          "name": "newCustomMintableERC20",
          "type": "address"
        }
      ],
      "stateMutability": "payable",
      "type": "function",
      "payable": true
    },
    {
      "inputs": [
        {
          "internalType": "address",
          "name": "user",
          "type": "address"
        }
      ],
      "name": "getTokenByUser",
      "outputs": [
        {
          "internalType": "address[]",
          "name": "stds",
          "type": "address[]"
        },
        {
          "internalType": "address[]",
          "name": "customs",
          "type": "address[]"
        },
        {
          "internalType": "address[]",
          "name": "mintables",
          "type": "address[]"
        }
      ],
      "stateMutability": "view",
      "type": "function",
      "constant": true
    },
    {
      "inputs": [
        {
          "internalType": "uint256",
          "name": "newFee",
          "type": "uint256"
        }
      ],
      "name": "changeCreateFee",
      "outputs": [],
      "stateMutability": "nonpayable",
      "type": "function"
    },
    {
      "inputs": [],
      "name": "withdraw",
      "outputs": [],
      "stateMutability": "nonpayable",
      "type": "function"
    }
  ],
  "bytecode": "0x60a060405234801561001057600080fd5b506040516111af3803806111af83398101604081905261002f91610045565b6001600160a01b0390911660805260025561007f565b6000806040838503121561005857600080fd5b82516001600160a01b038116811461006f57600080fd5b6020939093015192949293505050565b6080516111006100af600039600081816102b9015281816103fe015281816106fc01526108a701526111006000f3fe6080604052600436106100eb5760003560e01c80638456db1511610084578063d029d52111610056578063d029d52114610258578063e6acc72d14610287578063eb774d05146102a7578063f2fde38b146102db57005b80638456db15146101f2578063969ab5fd14610212578063c0ef7b6914610225578063ca7caaad1461023857005b8063217e637e116100bd578063217e637e1461019557806335c70da0146101a85780633ccfd60b146101c85780634e71e0c8146101dd57005b8063051396ff146100f45780630d0092971461013157806316048bc41461015157806321235d4a1461017157005b366100f257005b005b34801561010057600080fd5b5061011461010f366004610c64565b6102fb565b6040516001600160a01b0390911681526020015b60405180910390f35b34801561013d57600080fd5b506100f261014c366004610c90565b610333565b34801561015d57600080fd5b50600054610114906001600160a01b031681565b34801561017d57600080fd5b5061018760025481565b604051908152602001610128565b6101146101a3366004610d6d565b6103bb565b3480156101b457600080fd5b506101146101c3366004610c64565b610558565b3480156101d457600080fd5b506100f2610574565b3480156101e957600080fd5b506100f261060b565b3480156101fe57600080fd5b50600154610114906001600160a01b031681565b610114610220366004610dfe565b6106b9565b610114610233366004610dfe565b610864565b34801561024457600080fd5b50610114610253366004610c64565b610a00565b34801561026457600080fd5b50610278610273366004610c90565b610a1c565b60405161012893929190610efb565b34801561029357600080fd5b506100f26102a2366004610f3e565b610b68565b3480156102b357600080fd5b506101147f000000000000000000000000000000000000000000000000000000000000000081565b3480156102e757600080fd5b506100f26102f6366004610c90565b610bc7565b6004602052816000526040600020818154811061031757600080fd5b6000918252602090912001546001600160a01b03169150829050565b600154600160a01b900460ff16156103855760405162461bcd60e51b815260206004820152601060248201526f1113d113d7d25392551250531256915160821b60448201526064015b60405180910390fd5b6001805460ff60a01b1916600160a01b179055600080546001600160a01b039092166001600160a01b0319909216919091179055565b60006002543410156103df5760405162461bcd60e51b815260040161037c90610f57565b6040516340925bc760e11b81526001600160a01b0387811660048301527f00000000000000000000000000000000000000000000000000000000000000001690638124b78e906024016020604051808303816000875af1158015610447573d6000803e3d6000fd5b505050506040513d601f19601f8201168201806040525081019061046b9190610f86565b604051631f921de360e31b81529091506001600160a01b0382169063fc90ef18906104a29033908990899089908990600401610fe9565b600060405180830381600087803b1580156104bc57600080fd5b505af11580156104d0573d6000803e3d6000fd5b505033600081815260036020908152604080832080546001810182559084528284200180546001600160a01b0319166001600160a01b038916908117909155815190815291820193909352918201527f1393d5edd44c8974d9f4be5f459e4f6c6c67917e4400784fc61d8a0872a9fc389250606001905060405180910390a195945050505050565b6003602052816000526040600020818154811061031757600080fd5b6000546001600160a01b0316331461059e5760405162461bcd60e51b815260040161037c90611038565b6040514790339082156108fc029083906000818181858888f193505050501580156105cd573d6000803e3d6000fd5b5060408051338152602081018390527f884edad9ce6fa2440d8a54cc123490eb96d2768479d49ff9c7366125a942436491015b60405180910390a150565b6001546001600160a01b031633146106555760405162461bcd60e51b815260206004820152600d60248201526c494e56414c49445f434c41494d60981b604482015260640161037c565b600154600080546040516001600160a01b0393841693909116917f8be0079c531659141344cd1fd0a4f28419497f9722a3daafe3b4186f6b6457e091a360018054600080546001600160a01b03199081166001600160a01b03841617909155169055565b60006002543410156106dd5760405162461bcd60e51b815260040161037c90610f57565b6040516340925bc760e11b81526001600160a01b038a811660048301527f00000000000000000000000000000000000000000000000000000000000000001690638124b78e906024016020604051808303816000875af1158015610745573d6000803e3d6000fd5b505050506040513d601f19601f820116820180604052508101906107699190610f86565b604051634ca6082560e01b81529091506001600160a01b03821690634ca60825906107a69033908c908c908c908c908c908c908c9060040161105b565b600060405180830381600087803b1580156107c057600080fd5b505af11580156107d4573d6000803e3d6000fd5b50503360008181526004602090815260408083208054600180820183559185529383902090930180546001600160a01b0319166001600160a01b038916908117909155815190815291820193909352918201527f1393d5edd44c8974d9f4be5f459e4f6c6c67917e4400784fc61d8a0872a9fc38925060600190505b60405180910390a198975050505050505050565b60006002543410156108885760405162461bcd60e51b815260040161037c90610f57565b6040516340925bc760e11b81526001600160a01b038a811660048301527f00000000000000000000000000000000000000000000000000000000000000001690638124b78e906024016020604051808303816000875af11580156108f0573d6000803e3d6000fd5b505050506040513d601f19601f820116820180604052508101906109149190610f86565b604051634ca6082560e01b81529091506001600160a01b03821690634ca60825906109519033908c908c908c908c908c908c908c9060040161105b565b600060405180830381600087803b15801561096b57600080fd5b505af115801561097f573d6000803e3d6000fd5b505033600081815260056020908152604080832080546001810182559084529282902090920180546001600160a01b0319166001600160a01b0388169081179091558251908152908101929092526002908201527f1393d5edd44c8974d9f4be5f459e4f6c6c67917e4400784fc61d8a0872a9fc3892506060019050610850565b6005602052816000526040600020818154811061031757600080fd5b6001600160a01b03811660009081526003602090815260408083206004835281842060058452938290208154835181860281018601909452808452606095869586959193928591830182828015610a9c57602002820191906000526020600020905b81546001600160a01b03168152600190910190602001808311610a7e575b5050505050925081805480602002602001604051908101604052809291908181526020018280548015610af857602002820191906000526020600020905b81546001600160a01b03168152600190910190602001808311610ada575b5050505050915080805480602002602001604051908101604052809291908181526020018280548015610b5457602002820191906000526020600020905b81546001600160a01b03168152600190910190602001808311610b36575b505050505090509250925092509193909250565b6000546001600160a01b03163314610b925760405162461bcd60e51b815260040161037c90611038565b60028190556040518181527fe2a626dd21b2ca43b97ef589791d30517db1c9676631e68d57b444e2e182690990602001610600565b6000546001600160a01b03163314610bf15760405162461bcd60e51b815260040161037c90611038565b600080546040516001600160a01b03808516939216917fdcf55418cee3220104fef63f979ff3c4097ad240c0c43dcb33ce837748983e6291a3600180546001600160a01b0319166001600160a01b0392909216919091179055565b6001600160a01b0381168114610c6157600080fd5b50565b60008060408385031215610c7757600080fd5b8235610c8281610c4c565b946020939093013593505050565b600060208284031215610ca257600080fd5b8135610cad81610c4c565b9392505050565b634e487b7160e01b600052604160045260246000fd5b600082601f830112610cdb57600080fd5b813567ffffffffffffffff80821115610cf657610cf6610cb4565b604051601f8301601f19908116603f01168101908282118183101715610d1e57610d1e610cb4565b81604052838152866020858801011115610d3757600080fd5b836020870160208301376000602085830101528094505050505092915050565b803560ff81168114610d6857600080fd5b919050565b600080600080600060a08688031215610d8557600080fd5b8535610d9081610c4c565b945060208601359350604086013567ffffffffffffffff80821115610db457600080fd5b610dc089838a01610cca565b94506060880135915080821115610dd657600080fd5b50610de388828901610cca565b925050610df260808701610d57565b90509295509295909350565b600080600080600080600080610100898b031215610e1b57600080fd5b8835610e2681610c4c565b975060208901359650604089013567ffffffffffffffff80821115610e4a57600080fd5b610e568c838d01610cca565b975060608b0135915080821115610e6c57600080fd5b50610e798b828c01610cca565b955050610e8860808a01610d57565b935060a0890135925060c0890135915060e0890135610ea681610c4c565b809150509295985092959890939650565b600081518084526020808501945080840160005b83811015610ef05781516001600160a01b031687529582019590820190600101610ecb565b509495945050505050565b606081526000610f0e6060830186610eb7565b8281036020840152610f208186610eb7565b90508281036040840152610f348185610eb7565b9695505050505050565b600060208284031215610f5057600080fd5b5035919050565b602080825260159082015274086a48a82a88abe8c8a8abe9c9ea8be8a9c9eaa8e9605b1b604082015260600190565b600060208284031215610f9857600080fd5b8151610cad81610c4c565b6000815180845260005b81811015610fc957602081850181015186830182015201610fad565b506000602082860101526020601f19601f83011685010191505092915050565b60018060a01b038616815284602082015260a06040820152600061101060a0830186610fa3565b82810360608401526110228186610fa3565b91505060ff831660808301529695505050505050565b6020808252600990820152682727aa2fa7aba722a960b91b604082015260600190565b6001600160a01b03898116825260208201899052610100604083018190526000916110888483018b610fa3565b9150838203606085015261109c828a610fa3565b925060ff881660808501528660a08501528560c085015280851660e08501525050999850505050505050505056fea2646970667358221220de631172d918038cdb86f7c16b825e2e67cb3caa3fd36c7ae9339bc40c05dee764736f6c63430008130033",
  "immutableReferences": {
    "730": [
      {
        "length": 32,
        "start": 697
      },
      {
        "length": 32,
        "start": 1022
      },
      {
        "length": 32,
        "start": 1788
      },
      {
        "length": 32,
        "start": 2215
      }
    ]
  },
  "source": "// SPDX-License-Identifier: MIT\r\npragma solidity 0.8.19;\r\n\r\npragma experimental ABIEncoderV2;\r\n\r\ninterface ICloneFactory {\r\n  function clone(address prototype) external returns (address proxy);\r\n}\r\n\r\n// introduction of proxy mode design: https://docs.openzeppelin.com/upgrades/2.8/\r\n// minimum implementation of transparent proxy: https://eips.ethereum.org/EIPS/eip-1167\r\n\r\ncontract CloneFactory is ICloneFactory {\r\n  function clone(address prototype) external override returns (address proxy) {\r\n    bytes20 targetBytes = bytes20(prototype);\r\n    assembly {\r\n      let clone := mload(0x40)\r\n      mstore(clone, 0x3d602d80600a3d3981f3363d3d373d3d3d363d73000000000000000000000000)\r\n      mstore(add(clone, 0x14), targetBytes)\r\n      mstore(add(clone, 0x28), 0x5af43d82803e903d91602b57fd5bf30000000000000000000000000000000000)\r\n      proxy := create(0, clone, 0x37)\r\n    }\r\n    return proxy;\r\n  }\r\n}\r\n\r\n// File: contracts/lib/InitializableOwnable.sol\r\n\r\n/**\r\n * @title Ownable\r\n * @author DODO Breeder\r\n *\r\n * @notice Ownership related functions\r\n */\r\ncontract InitializableOwnable {\r\n  address public _OWNER_;\r\n  address public _NEW_OWNER_;\r\n  bool internal _INITIALIZED_;\r\n\r\n  // ============ Events ============\r\n\r\n  event OwnershipTransferPrepared(address indexed previousOwner, address indexed newOwner);\r\n\r\n  event OwnershipTransferred(address indexed previousOwner, address indexed newOwner);\r\n\r\n  // ============ Modifiers ============\r\n\r\n  modifier notInitialized() {\r\n    require(!_INITIALIZED_, 'DODO_INITIALIZED');\r\n    _;\r\n  }\r\n\r\n  modifier onlyOwner() {\r\n    require(msg.sender == _OWNER_, 'NOT_OWNER');\r\n    _;\r\n  }\r\n\r\n  // ============ Functions ============\r\n\r\n  function initOwner(address newOwner) public notInitialized {\r\n    _INITIALIZED_ = true;\r\n    _OWNER_ = newOwner;\r\n  }\r\n\r\n  function transferOwnership(address newOwner) public onlyOwner {\r\n    emit OwnershipTransferPrepared(_OWNER_, newOwner);\r\n    _NEW_OWNER_ = newOwner;\r\n  }\r\n\r\n  function claimOwnership() public {\r\n    require(msg.sender == _NEW_OWNER_, 'INVALID_CLAIM');\r\n    emit OwnershipTransferred(_OWNER_, _NEW_OWNER_);\r\n    _OWNER_ = _NEW_OWNER_;\r\n    _NEW_OWNER_ = address(0);\r\n  }\r\n}\r\n\r\n// File: contracts/Factory/ERC20V3Factory.sol\r\n\r\ninterface IStdERC20 {\r\n  function init(\r\n    address _creator,\r\n    uint256 _totalSupply,\r\n    string memory _name,\r\n    string memory _symbol,\r\n    uint8 _decimals\r\n  ) external;\r\n}\r\n\r\ninterface ICustomERC20 {\r\n  function init(\r\n    address _creator,\r\n    uint256 _initSupply,\r\n    string memory _name,\r\n    string memory _symbol,\r\n    uint8 _decimals,\r\n    uint256 _tradeBurnRatio,\r\n    uint256 _tradeFeeRatio,\r\n    address _team\r\n  ) external;\r\n}\r\n\r\n/**\r\n * @title DODO ERC20V2Factory\r\n * @author DODO Breeder\r\n *\r\n * @notice Help user to create erc20 token\r\n */\r\ncontract Lesson7ERC20V3Factory is InitializableOwnable {\r\n  // ============ Templates ============\r\n\r\n  address public immutable _CLONE_FACTORY_;\r\n  uint256 public _CREATE_FEE_;\r\n\r\n  // ============ Events ============\r\n  // 0 Std 1 TradeBurn or TradeFee 2 Mintable\r\n  event NewERC20(address erc20, address creator, uint256 erc20Type);\r\n  event ChangeCreateFee(uint256 newFee);\r\n  event Withdraw(address account, uint256 amount);\r\n\r\n  // ============ Registry ============\r\n  // creator -> token address list\r\n  mapping(address => address[]) public _USER_STD_REGISTRY_;\r\n  mapping(address => address[]) public _USER_CUSTOM_REGISTRY_;\r\n  mapping(address => address[]) public _USER_CUSTOM_MINTABLE_REGISTRY_;\r\n\r\n  // ============ Functions ============\r\n\r\n  fallback() external payable {}\r\n\r\n  receive() external payable {}\r\n\r\n  constructor(address cloneFactory, uint256 createFee) {\r\n    _CLONE_FACTORY_ = cloneFactory;\r\n    _CREATE_FEE_ = createFee;\r\n  }\r\n\r\n  function createStdERC20(\r\n    address _erc20_template_,\r\n    uint256 totalSupply,\r\n    string memory name,\r\n    string memory symbol,\r\n    uint8 decimals\r\n  ) external payable returns (address newERC20) {\r\n    require(msg.value >= _CREATE_FEE_, 'CREATE_FEE_NOT_ENOUGH');\r\n    newERC20 = ICloneFactory(_CLONE_FACTORY_).clone(_erc20_template_);\r\n    IStdERC20(newERC20).init(msg.sender, totalSupply, name, symbol, decimals);\r\n    _USER_STD_REGISTRY_[msg.sender].push(newERC20);\r\n    emit NewERC20(newERC20, msg.sender, 0);\r\n  }\r\n\r\n  function createCustomERC20(\r\n    address _custom_erc20_template_,\r\n    uint256 totalSupply,\r\n    string memory name,\r\n    string memory symbol,\r\n    uint8 decimals,\r\n    uint256 tradeBurnRatio,\r\n    uint256 tradeFeeRatio,\r\n    address teamAccount\r\n  ) external payable returns (address newCustomERC20) {\r\n    require(msg.value >= _CREATE_FEE_, 'CREATE_FEE_NOT_ENOUGH');\r\n    newCustomERC20 = ICloneFactory(_CLONE_FACTORY_).clone(_custom_erc20_template_);\r\n\r\n    ICustomERC20(newCustomERC20).init(\r\n      msg.sender,\r\n      totalSupply,\r\n      name,\r\n      symbol,\r\n      decimals,\r\n      tradeBurnRatio,\r\n      tradeFeeRatio,\r\n      teamAccount\r\n    );\r\n\r\n    _USER_CUSTOM_REGISTRY_[msg.sender].push(newCustomERC20);\r\n\r\n    emit NewERC20(newCustomERC20, msg.sender, 1);\r\n  }\r\n\r\n  function createCustomMintableERC20(\r\n    address _custom_mintable_erc20_template_,\r\n    uint256 initSupply,\r\n    string memory name,\r\n    string memory symbol,\r\n    uint8 decimals,\r\n    uint256 tradeBurnRatio,\r\n    uint256 tradeFeeRatio,\r\n    address teamAccount\r\n  ) external payable returns (address newCustomMintableERC20) {\r\n    require(msg.value >= _CREATE_FEE_, 'CREATE_FEE_NOT_ENOUGH');\r\n    newCustomMintableERC20 = ICloneFactory(_CLONE_FACTORY_).clone(_custom_mintable_erc20_template_);\r\n\r\n    ICustomERC20(newCustomMintableERC20).init(\r\n      msg.sender,\r\n      initSupply,\r\n      name,\r\n      symbol,\r\n      decimals,\r\n      tradeBurnRatio,\r\n      tradeFeeRatio,\r\n      teamAccount\r\n    );\r\n\r\n    _USER_CUSTOM_MINTABLE_REGISTRY_[msg.sender].push(newCustomMintableERC20);\r\n\r\n    emit NewERC20(newCustomMintableERC20, msg.sender, 2);\r\n  }\r\n\r\n  // ============ View ============\r\n  function getTokenByUser(\r\n    address user\r\n  ) external view returns (address[] memory stds, address[] memory customs, address[] memory mintables) {\r\n    return (_USER_STD_REGISTRY_[user], _USER_CUSTOM_REGISTRY_[user], _USER_CUSTOM_MINTABLE_REGISTRY_[user]);\r\n  }\r\n\r\n  // ============ Ownable =============\r\n  function changeCreateFee(uint256 newFee) external onlyOwner {\r\n    _CREATE_FEE_ = newFee;\r\n    emit ChangeCreateFee(newFee);\r\n  }\r\n\r\n  function withdraw() external onlyOwner {\r\n    uint256 amount = address(this).balance;\r\n    payable(msg.sender).transfer(amount);\r\n    emit Withdraw(msg.sender, amount);\r\n  }\r\n}\r\n",
  "sourcePath": "E:\\git_2023\\tintin-lesson-7\\truffle\\contracts\\Lesson7ERC20V3Factory.sol",
  "compiler": {
    "name": "solc",
    "version": "0.8.19+commit.7dd6d404.Emscripten.clang"
  },
  "schemaVersion": "3.4.13",
  "updatedAt": "2023-04-27T04:22:13.509Z",
  "networkType": "ethereum",
  "devdoc": {
    "author": "DODO Breeder",
    "kind": "dev",
    "methods": {},
    "title": "DODO ERC20V2Factory",
    "version": 1
  },
  "userdoc": {
    "kind": "user",
    "methods": {},
    "notice": "Help user to create erc20 token",
    "version": 1
  }
}