{
  "contractName": "CloneFactory",
  "abi": [
    {
      "inputs": [
        {
          "internalType": "address",
          "name": "prototype",
          "type": "address"
        }
      ],
      "name": "clone",
      "outputs": [
        {
          "internalType": "address",
          "name": "proxy",
          "type": "address"
        }
      ],
      "stateMutability": "nonpayable",
      "type": "function"
    }
  ],
  "bytecode": "0x608060405234801561001057600080fd5b5061010e806100206000396000f3fe6080604052348015600f57600080fd5b506004361060285760003560e01c80638124b78e14602d575b600080fd5b603c603836600460aa565b6058565b6040516001600160a01b03909116815260200160405180910390f35b6000808260601b9050604051733d602d80600a3d3981f3363d3d373d3d3d363d7360601b81528160148201526e5af43d82803e903d91602b57fd5bf360881b60288201526037816000f0949350505050565b60006020828403121560bb57600080fd5b81356001600160a01b038116811460d157600080fd5b939250505056fea2646970667358221220f86524bf2c60f9d7a3bda4067a64d296e16cc4f9dbdc1291b3c4c1ed08b8f57364736f6c63430008130033",
  "immutableReferences": {},
  "source": "// SPDX-License-Identifier: MIT\r\npragma solidity 0.8.19;\r\n\r\npragma experimental ABIEncoderV2;\r\n\r\ninterface ICloneFactory {\r\n  function clone(address prototype) external returns (address proxy);\r\n}\r\n\r\n// introduction of proxy mode design: https://docs.openzeppelin.com/upgrades/2.8/\r\n// minimum implementation of transparent proxy: https://eips.ethereum.org/EIPS/eip-1167\r\n\r\ncontract CloneFactory is ICloneFactory {\r\n  function clone(address prototype) external override returns (address proxy) {\r\n    bytes20 targetBytes = bytes20(prototype);\r\n    assembly {\r\n      let clone := mload(0x40)\r\n      mstore(clone, 0x3d602d80600a3d3981f3363d3d373d3d3d363d73000000000000000000000000)\r\n      mstore(add(clone, 0x14), targetBytes)\r\n      mstore(add(clone, 0x28), 0x5af43d82803e903d91602b57fd5bf30000000000000000000000000000000000)\r\n      proxy := create(0, clone, 0x37)\r\n    }\r\n    return proxy;\r\n  }\r\n}\r\n\r\n// File: contracts/lib/InitializableOwnable.sol\r\n\r\n/**\r\n * @title Ownable\r\n * @author DODO Breeder\r\n *\r\n * @notice Ownership related functions\r\n */\r\ncontract InitializableOwnable {\r\n  address public _OWNER_;\r\n  address public _NEW_OWNER_;\r\n  bool internal _INITIALIZED_;\r\n\r\n  // ============ Events ============\r\n\r\n  event OwnershipTransferPrepared(address indexed previousOwner, address indexed newOwner);\r\n\r\n  event OwnershipTransferred(address indexed previousOwner, address indexed newOwner);\r\n\r\n  // ============ Modifiers ============\r\n\r\n  modifier notInitialized() {\r\n    require(!_INITIALIZED_, 'DODO_INITIALIZED');\r\n    _;\r\n  }\r\n\r\n  modifier onlyOwner() {\r\n    require(msg.sender == _OWNER_, 'NOT_OWNER');\r\n    _;\r\n  }\r\n\r\n  // ============ Functions ============\r\n\r\n  function initOwner(address newOwner) public notInitialized {\r\n    _INITIALIZED_ = true;\r\n    _OWNER_ = newOwner;\r\n  }\r\n\r\n  function transferOwnership(address newOwner) public onlyOwner {\r\n    emit OwnershipTransferPrepared(_OWNER_, newOwner);\r\n    _NEW_OWNER_ = newOwner;\r\n  }\r\n\r\n  function claimOwnership() public {\r\n    require(msg.sender == _NEW_OWNER_, 'INVALID_CLAIM');\r\n    emit OwnershipTransferred(_OWNER_, _NEW_OWNER_);\r\n    _OWNER_ = _NEW_OWNER_;\r\n    _NEW_OWNER_ = address(0);\r\n  }\r\n}\r\n\r\n// File: contracts/Factory/ERC20V3Factory.sol\r\n\r\ninterface IStdERC20 {\r\n  function init(\r\n    address _creator,\r\n    uint256 _totalSupply,\r\n    string memory _name,\r\n    string memory _symbol,\r\n    uint8 _decimals\r\n  ) external;\r\n}\r\n\r\ninterface ICustomERC20 {\r\n  function init(\r\n    address _creator,\r\n    uint256 _initSupply,\r\n    string memory _name,\r\n    string memory _symbol,\r\n    uint8 _decimals,\r\n    uint256 _tradeBurnRatio,\r\n    uint256 _tradeFeeRatio,\r\n    address _team\r\n  ) external;\r\n}\r\n\r\n/**\r\n * @title DODO ERC20V2Factory\r\n * @author DODO Breeder\r\n *\r\n * @notice Help user to create erc20 token\r\n */\r\ncontract Lesson7ERC20V3Factory is InitializableOwnable {\r\n  // ============ Templates ============\r\n\r\n  address public immutable _CLONE_FACTORY_;\r\n  address public _ERC20_TEMPLATE_;\r\n  address public _CUSTOM_ERC20_TEMPLATE_;\r\n  address public _CUSTOM_MINTABLE_ERC20_TEMPLATE_;\r\n  uint256 public _CREATE_FEE_;\r\n\r\n  // ============ Events ============\r\n  // 0 Std 1 TradeBurn or TradeFee 2 Mintable\r\n  event NewERC20(address erc20, address creator, uint256 erc20Type);\r\n  event ChangeCreateFee(uint256 newFee);\r\n  event Withdraw(address account, uint256 amount);\r\n  event ChangeStdTemplate(address newStdTemplate);\r\n  event ChangeCustomTemplate(address newCustomTemplate);\r\n  event ChangeCustomMintableTemplate(address newCustomMintableTemplate);\r\n\r\n  // ============ Registry ============\r\n  // creator -> token address list\r\n  mapping(address => address[]) public _USER_STD_REGISTRY_;\r\n  mapping(address => address[]) public _USER_CUSTOM_REGISTRY_;\r\n  mapping(address => address[]) public _USER_CUSTOM_MINTABLE_REGISTRY_;\r\n\r\n  // ============ Functions ============\r\n\r\n  fallback() external payable {}\r\n\r\n  receive() external payable {}\r\n\r\n  constructor(\r\n    address cloneFactory,\r\n    address erc20Template,\r\n    address customErc20Template,\r\n    address customMintableErc20Template,\r\n    uint256 createFee\r\n  ) {\r\n    _CLONE_FACTORY_ = cloneFactory;\r\n    _ERC20_TEMPLATE_ = erc20Template;\r\n    _CUSTOM_ERC20_TEMPLATE_ = customErc20Template;\r\n    _CUSTOM_MINTABLE_ERC20_TEMPLATE_ = customMintableErc20Template;\r\n    _CREATE_FEE_ = createFee;\r\n  }\r\n\r\n  function createStdERC20(\r\n    uint256 totalSupply,\r\n    string memory name,\r\n    string memory symbol,\r\n    uint8 decimals\r\n  ) external payable returns (address newERC20) {\r\n    require(msg.value >= _CREATE_FEE_, 'CREATE_FEE_NOT_ENOUGH');\r\n    newERC20 = ICloneFactory(_CLONE_FACTORY_).clone(_ERC20_TEMPLATE_);\r\n    IStdERC20(newERC20).init(msg.sender, totalSupply, name, symbol, decimals);\r\n    _USER_STD_REGISTRY_[msg.sender].push(newERC20);\r\n    emit NewERC20(newERC20, msg.sender, 0);\r\n  }\r\n\r\n  function createCustomERC20(\r\n    uint256 totalSupply,\r\n    string memory name,\r\n    string memory symbol,\r\n    uint8 decimals,\r\n    uint256 tradeBurnRatio,\r\n    uint256 tradeFeeRatio,\r\n    address teamAccount\r\n  ) external payable returns (address newCustomERC20) {\r\n    require(msg.value >= _CREATE_FEE_, 'CREATE_FEE_NOT_ENOUGH');\r\n    newCustomERC20 = ICloneFactory(_CLONE_FACTORY_).clone(_CUSTOM_ERC20_TEMPLATE_);\r\n\r\n    ICustomERC20(newCustomERC20).init(\r\n      msg.sender,\r\n      totalSupply,\r\n      name,\r\n      symbol,\r\n      decimals,\r\n      tradeBurnRatio,\r\n      tradeFeeRatio,\r\n      teamAccount\r\n    );\r\n\r\n    _USER_CUSTOM_REGISTRY_[msg.sender].push(newCustomERC20);\r\n\r\n    emit NewERC20(newCustomERC20, msg.sender, 1);\r\n  }\r\n\r\n  function createCustomMintableERC20(\r\n    uint256 initSupply,\r\n    string memory name,\r\n    string memory symbol,\r\n    uint8 decimals,\r\n    uint256 tradeBurnRatio,\r\n    uint256 tradeFeeRatio,\r\n    address teamAccount\r\n  ) external payable returns (address newCustomMintableERC20) {\r\n    require(msg.value >= _CREATE_FEE_, 'CREATE_FEE_NOT_ENOUGH');\r\n    newCustomMintableERC20 = ICloneFactory(_CLONE_FACTORY_).clone(_CUSTOM_MINTABLE_ERC20_TEMPLATE_);\r\n\r\n    ICustomERC20(newCustomMintableERC20).init(\r\n      msg.sender,\r\n      initSupply,\r\n      name,\r\n      symbol,\r\n      decimals,\r\n      tradeBurnRatio,\r\n      tradeFeeRatio,\r\n      teamAccount\r\n    );\r\n\r\n    _USER_CUSTOM_MINTABLE_REGISTRY_[msg.sender].push(newCustomMintableERC20);\r\n\r\n    emit NewERC20(newCustomMintableERC20, msg.sender, 2);\r\n  }\r\n\r\n  // ============ View ============\r\n  function getTokenByUser(\r\n    address user\r\n  ) external view returns (address[] memory stds, address[] memory customs, address[] memory mintables) {\r\n    return (_USER_STD_REGISTRY_[user], _USER_CUSTOM_REGISTRY_[user], _USER_CUSTOM_MINTABLE_REGISTRY_[user]);\r\n  }\r\n\r\n  // ============ Ownable =============\r\n  function changeCreateFee(uint256 newFee) external onlyOwner {\r\n    _CREATE_FEE_ = newFee;\r\n    emit ChangeCreateFee(newFee);\r\n  }\r\n\r\n  function withdraw() external onlyOwner {\r\n    uint256 amount = address(this).balance;\r\n    payable(msg.sender).transfer(amount);\r\n    emit Withdraw(msg.sender, amount);\r\n  }\r\n\r\n  function updateStdTemplate(address newStdTemplate) external onlyOwner {\r\n    _ERC20_TEMPLATE_ = newStdTemplate;\r\n    emit ChangeStdTemplate(newStdTemplate);\r\n  }\r\n\r\n  function updateCustomTemplate(address newCustomTemplate) external onlyOwner {\r\n    _CUSTOM_ERC20_TEMPLATE_ = newCustomTemplate;\r\n    emit ChangeCustomTemplate(newCustomTemplate);\r\n  }\r\n\r\n  function updateCustomMintableTemplate(address newCustomMintableTemplate) external onlyOwner {\r\n    _CUSTOM_MINTABLE_ERC20_TEMPLATE_ = newCustomMintableTemplate;\r\n    emit ChangeCustomMintableTemplate(newCustomMintableTemplate);\r\n  }\r\n}\r\n",
  "sourcePath": "E:\\git_2023\\tintin-lesson-7\\truffle\\contracts\\Lesson7ERC20V3Factory.sol",
  "compiler": {
    "name": "solc",
    "version": "0.8.19+commit.7dd6d404.Emscripten.clang"
  },
  "schemaVersion": "3.4.13",
  "updatedAt": "2023-04-27T04:01:37.830Z",
  "devdoc": {
    "kind": "dev",
    "methods": {},
    "version": 1
  },
  "userdoc": {
    "kind": "user",
    "methods": {},
    "version": 1
  }
}