{
  "contractName": "InitializableOwnable",
  "abi": [
    {
      "anonymous": false,
      "inputs": [
        {
          "indexed": true,
          "internalType": "address",
          "name": "previousOwner",
          "type": "address"
        },
        {
          "indexed": true,
          "internalType": "address",
          "name": "newOwner",
          "type": "address"
        }
      ],
      "name": "OwnershipTransferPrepared",
      "type": "event"
    },
    {
      "anonymous": false,
      "inputs": [
        {
          "indexed": true,
          "internalType": "address",
          "name": "previousOwner",
          "type": "address"
        },
        {
          "indexed": true,
          "internalType": "address",
          "name": "newOwner",
          "type": "address"
        }
      ],
      "name": "OwnershipTransferred",
      "type": "event"
    },
    {
      "inputs": [],
      "name": "_NEW_OWNER_",
      "outputs": [
        {
          "internalType": "address",
          "name": "",
          "type": "address"
        }
      ],
      "stateMutability": "view",
      "type": "function"
    },
    {
      "inputs": [],
      "name": "_OWNER_",
      "outputs": [
        {
          "internalType": "address",
          "name": "",
          "type": "address"
        }
      ],
      "stateMutability": "view",
      "type": "function"
    },
    {
      "inputs": [
        {
          "internalType": "address",
          "name": "newOwner",
          "type": "address"
        }
      ],
      "name": "initOwner",
      "outputs": [],
      "stateMutability": "nonpayable",
      "type": "function"
    },
    {
      "inputs": [
        {
          "internalType": "address",
          "name": "newOwner",
          "type": "address"
        }
      ],
      "name": "transferOwnership",
      "outputs": [],
      "stateMutability": "nonpayable",
      "type": "function"
    },
    {
      "inputs": [],
      "name": "claimOwnership",
      "outputs": [],
      "stateMutability": "nonpayable",
      "type": "function"
    }
  ],
  "bytecode": "0x608060405234801561001057600080fd5b5061030b806100206000396000f3fe608060405234801561001057600080fd5b50600436106100575760003560e01c80630d0092971461005c57806316048bc4146100715780634e71e0c8146100a05780638456db15146100a8578063f2fde38b146100bb575b600080fd5b61006f61006a3660046102a5565b6100ce565b005b600054610084906001600160a01b031681565b6040516001600160a01b03909116815260200160405180910390f35b61006f610156565b600154610084906001600160a01b031681565b61006f6100c93660046102a5565b610204565b600154600160a01b900460ff16156101205760405162461bcd60e51b815260206004820152601060248201526f1113d113d7d25392551250531256915160821b60448201526064015b60405180910390fd5b6001805460ff60a01b1916600160a01b179055600080546001600160a01b039092166001600160a01b0319909216919091179055565b6001546001600160a01b031633146101a05760405162461bcd60e51b815260206004820152600d60248201526c494e56414c49445f434c41494d60981b6044820152606401610117565b600154600080546040516001600160a01b0393841693909116917f8be0079c531659141344cd1fd0a4f28419497f9722a3daafe3b4186f6b6457e091a360018054600080546001600160a01b03199081166001600160a01b03841617909155169055565b6000546001600160a01b0316331461024a5760405162461bcd60e51b81526020600482015260096024820152682727aa2fa7aba722a960b91b6044820152606401610117565b600080546040516001600160a01b03808516939216917fdcf55418cee3220104fef63f979ff3c4097ad240c0c43dcb33ce837748983e6291a3600180546001600160a01b0319166001600160a01b0392909216919091179055565b6000602082840312156102b757600080fd5b81356001600160a01b03811681146102ce57600080fd5b939250505056fea2646970667358221220282c55bb27a9a60a9917ea4860e9b05a67da448503d0b8f9921ffb69c7a0cc4664736f6c63430008130033",
  "immutableReferences": {},
  "source": "// SPDX-License-Identifier: MIT\r\npragma solidity 0.8.19;\r\n\r\npragma experimental ABIEncoderV2;\r\n\r\ninterface ICloneFactory {\r\n  function clone(address prototype) external returns (address proxy);\r\n}\r\n\r\n// introduction of proxy mode design: https://docs.openzeppelin.com/upgrades/2.8/\r\n// minimum implementation of transparent proxy: https://eips.ethereum.org/EIPS/eip-1167\r\n\r\ncontract CloneFactory is ICloneFactory {\r\n  function clone(address prototype) external override returns (address proxy) {\r\n    bytes20 targetBytes = bytes20(prototype);\r\n    assembly {\r\n      let clone := mload(0x40)\r\n      mstore(clone, 0x3d602d80600a3d3981f3363d3d373d3d3d363d73000000000000000000000000)\r\n      mstore(add(clone, 0x14), targetBytes)\r\n      mstore(add(clone, 0x28), 0x5af43d82803e903d91602b57fd5bf30000000000000000000000000000000000)\r\n      proxy := create(0, clone, 0x37)\r\n    }\r\n    return proxy;\r\n  }\r\n}\r\n\r\n// File: contracts/lib/InitializableOwnable.sol\r\n\r\n/**\r\n * @title Ownable\r\n * @author DODO Breeder\r\n *\r\n * @notice Ownership related functions\r\n */\r\ncontract InitializableOwnable {\r\n  address public _OWNER_;\r\n  address public _NEW_OWNER_;\r\n  bool internal _INITIALIZED_;\r\n\r\n  // ============ Events ============\r\n\r\n  event OwnershipTransferPrepared(address indexed previousOwner, address indexed newOwner);\r\n\r\n  event OwnershipTransferred(address indexed previousOwner, address indexed newOwner);\r\n\r\n  // ============ Modifiers ============\r\n\r\n  modifier notInitialized() {\r\n    require(!_INITIALIZED_, 'DODO_INITIALIZED');\r\n    _;\r\n  }\r\n\r\n  modifier onlyOwner() {\r\n    require(msg.sender == _OWNER_, 'NOT_OWNER');\r\n    _;\r\n  }\r\n\r\n  // ============ Functions ============\r\n\r\n  function initOwner(address newOwner) public notInitialized {\r\n    _INITIALIZED_ = true;\r\n    _OWNER_ = newOwner;\r\n  }\r\n\r\n  function transferOwnership(address newOwner) public onlyOwner {\r\n    emit OwnershipTransferPrepared(_OWNER_, newOwner);\r\n    _NEW_OWNER_ = newOwner;\r\n  }\r\n\r\n  function claimOwnership() public {\r\n    require(msg.sender == _NEW_OWNER_, 'INVALID_CLAIM');\r\n    emit OwnershipTransferred(_OWNER_, _NEW_OWNER_);\r\n    _OWNER_ = _NEW_OWNER_;\r\n    _NEW_OWNER_ = address(0);\r\n  }\r\n}\r\n\r\n// File: contracts/Factory/ERC20V3Factory.sol\r\n\r\ninterface IStdERC20 {\r\n  function init(\r\n    address _creator,\r\n    uint256 _totalSupply,\r\n    string memory _name,\r\n    string memory _symbol,\r\n    uint8 _decimals\r\n  ) external;\r\n}\r\n\r\ninterface ICustomERC20 {\r\n  function init(\r\n    address _creator,\r\n    uint256 _initSupply,\r\n    string memory _name,\r\n    string memory _symbol,\r\n    uint8 _decimals,\r\n    uint256 _tradeBurnRatio,\r\n    uint256 _tradeFeeRatio,\r\n    address _team\r\n  ) external;\r\n}\r\n\r\n/**\r\n * @title DODO ERC20V2Factory\r\n * @author DODO Breeder\r\n *\r\n * @notice Help user to create erc20 token\r\n */\r\ncontract Lesson7ERC20V3Factory is InitializableOwnable {\r\n  // ============ Templates ============\r\n\r\n  address public immutable _CLONE_FACTORY_;\r\n  uint256 public _CREATE_FEE_;\r\n\r\n  // ============ Events ============\r\n  // 0 Std 1 TradeBurn or TradeFee 2 Mintable\r\n  event NewERC20(address erc20, address creator, uint256 erc20Type);\r\n  event ChangeCreateFee(uint256 newFee);\r\n  event Withdraw(address account, uint256 amount);\r\n\r\n  // ============ Registry ============\r\n  // creator -> token address list\r\n  mapping(address => address[]) public _USER_STD_REGISTRY_;\r\n  mapping(address => address[]) public _USER_CUSTOM_REGISTRY_;\r\n  mapping(address => address[]) public _USER_CUSTOM_MINTABLE_REGISTRY_;\r\n\r\n  // ============ Functions ============\r\n\r\n  fallback() external payable {}\r\n\r\n  receive() external payable {}\r\n\r\n  constructor(address cloneFactory, uint256 createFee) {\r\n    _CLONE_FACTORY_ = cloneFactory;\r\n    _CREATE_FEE_ = createFee;\r\n  }\r\n\r\n  function createStdERC20(\r\n    address _erc20_template_,\r\n    uint256 totalSupply,\r\n    string memory name,\r\n    string memory symbol,\r\n    uint8 decimals\r\n  ) external payable returns (address newERC20) {\r\n    require(msg.value >= _CREATE_FEE_, 'CREATE_FEE_NOT_ENOUGH');\r\n    newERC20 = ICloneFactory(_CLONE_FACTORY_).clone(_erc20_template_);\r\n    IStdERC20(newERC20).init(msg.sender, totalSupply, name, symbol, decimals);\r\n    _USER_STD_REGISTRY_[msg.sender].push(newERC20);\r\n    emit NewERC20(newERC20, msg.sender, 0);\r\n  }\r\n\r\n  function createCustomERC20(\r\n    address _custom_erc20_template_,\r\n    uint256 totalSupply,\r\n    string memory name,\r\n    string memory symbol,\r\n    uint8 decimals,\r\n    uint256 tradeBurnRatio,\r\n    uint256 tradeFeeRatio,\r\n    address teamAccount\r\n  ) external payable returns (address newCustomERC20) {\r\n    require(msg.value >= _CREATE_FEE_, 'CREATE_FEE_NOT_ENOUGH');\r\n    newCustomERC20 = ICloneFactory(_CLONE_FACTORY_).clone(_custom_erc20_template_);\r\n\r\n    ICustomERC20(newCustomERC20).init(\r\n      msg.sender,\r\n      totalSupply,\r\n      name,\r\n      symbol,\r\n      decimals,\r\n      tradeBurnRatio,\r\n      tradeFeeRatio,\r\n      teamAccount\r\n    );\r\n\r\n    _USER_CUSTOM_REGISTRY_[msg.sender].push(newCustomERC20);\r\n\r\n    emit NewERC20(newCustomERC20, msg.sender, 1);\r\n  }\r\n\r\n  function createCustomMintableERC20(\r\n    address _custom_mintable_erc20_template_,\r\n    uint256 initSupply,\r\n    string memory name,\r\n    string memory symbol,\r\n    uint8 decimals,\r\n    uint256 tradeBurnRatio,\r\n    uint256 tradeFeeRatio,\r\n    address teamAccount\r\n  ) external payable returns (address newCustomMintableERC20) {\r\n    require(msg.value >= _CREATE_FEE_, 'CREATE_FEE_NOT_ENOUGH');\r\n    newCustomMintableERC20 = ICloneFactory(_CLONE_FACTORY_).clone(_custom_mintable_erc20_template_);\r\n\r\n    ICustomERC20(newCustomMintableERC20).init(\r\n      msg.sender,\r\n      initSupply,\r\n      name,\r\n      symbol,\r\n      decimals,\r\n      tradeBurnRatio,\r\n      tradeFeeRatio,\r\n      teamAccount\r\n    );\r\n\r\n    _USER_CUSTOM_MINTABLE_REGISTRY_[msg.sender].push(newCustomMintableERC20);\r\n\r\n    emit NewERC20(newCustomMintableERC20, msg.sender, 2);\r\n  }\r\n\r\n  // ============ View ============\r\n  function getTokenByUser(\r\n    address user\r\n  ) external view returns (address[] memory stds, address[] memory customs, address[] memory mintables) {\r\n    return (_USER_STD_REGISTRY_[user], _USER_CUSTOM_REGISTRY_[user], _USER_CUSTOM_MINTABLE_REGISTRY_[user]);\r\n  }\r\n\r\n  // ============ Ownable =============\r\n  function changeCreateFee(uint256 newFee) external onlyOwner {\r\n    _CREATE_FEE_ = newFee;\r\n    emit ChangeCreateFee(newFee);\r\n  }\r\n\r\n  function withdraw() external onlyOwner {\r\n    uint256 amount = address(this).balance;\r\n    payable(msg.sender).transfer(amount);\r\n    emit Withdraw(msg.sender, amount);\r\n  }\r\n}\r\n",
  "sourcePath": "E:\\git_2023\\tintin-lesson-7\\truffle\\contracts\\Lesson7ERC20V3Factory.sol",
  "compiler": {
    "name": "solc",
    "version": "0.8.19+commit.7dd6d404.Emscripten.clang"
  },
  "schemaVersion": "3.4.13",
  "updatedAt": "2023-04-27T04:21:13.692Z",
  "devdoc": {
    "author": "DODO Breeder",
    "kind": "dev",
    "methods": {},
    "title": "Ownable",
    "version": 1
  },
  "userdoc": {
    "kind": "user",
    "methods": {},
    "notice": "Ownership related functions",
    "version": 1
  }
}