{
  "contractName": "InitializableERC20",
  "abi": [
    {
      "anonymous": false,
      "inputs": [
        {
          "indexed": true,
          "internalType": "address",
          "name": "owner",
          "type": "address"
        },
        {
          "indexed": true,
          "internalType": "address",
          "name": "spender",
          "type": "address"
        },
        {
          "indexed": false,
          "internalType": "uint256",
          "name": "amount",
          "type": "uint256"
        }
      ],
      "name": "Approval",
      "type": "event"
    },
    {
      "anonymous": false,
      "inputs": [
        {
          "indexed": true,
          "internalType": "address",
          "name": "from",
          "type": "address"
        },
        {
          "indexed": true,
          "internalType": "address",
          "name": "to",
          "type": "address"
        },
        {
          "indexed": false,
          "internalType": "uint256",
          "name": "amount",
          "type": "uint256"
        }
      ],
      "name": "Transfer",
      "type": "event"
    },
    {
      "inputs": [],
      "name": "_OWNER_",
      "outputs": [
        {
          "internalType": "address",
          "name": "",
          "type": "address"
        }
      ],
      "stateMutability": "view",
      "type": "function"
    },
    {
      "inputs": [],
      "name": "decimals",
      "outputs": [
        {
          "internalType": "uint8",
          "name": "",
          "type": "uint8"
        }
      ],
      "stateMutability": "view",
      "type": "function"
    },
    {
      "inputs": [],
      "name": "initialized",
      "outputs": [
        {
          "internalType": "bool",
          "name": "",
          "type": "bool"
        }
      ],
      "stateMutability": "view",
      "type": "function"
    },
    {
      "inputs": [],
      "name": "name",
      "outputs": [
        {
          "internalType": "string",
          "name": "",
          "type": "string"
        }
      ],
      "stateMutability": "view",
      "type": "function"
    },
    {
      "inputs": [],
      "name": "symbol",
      "outputs": [
        {
          "internalType": "string",
          "name": "",
          "type": "string"
        }
      ],
      "stateMutability": "view",
      "type": "function"
    },
    {
      "inputs": [],
      "name": "totalSupply",
      "outputs": [
        {
          "internalType": "uint256",
          "name": "",
          "type": "uint256"
        }
      ],
      "stateMutability": "view",
      "type": "function"
    },
    {
      "inputs": [
        {
          "internalType": "address",
          "name": "_creator",
          "type": "address"
        },
        {
          "internalType": "uint256",
          "name": "_totalSupply",
          "type": "uint256"
        },
        {
          "internalType": "string",
          "name": "_name",
          "type": "string"
        },
        {
          "internalType": "string",
          "name": "_symbol",
          "type": "string"
        },
        {
          "internalType": "uint8",
          "name": "_decimals",
          "type": "uint8"
        }
      ],
      "name": "init",
      "outputs": [],
      "stateMutability": "nonpayable",
      "type": "function"
    },
    {
      "inputs": [
        {
          "internalType": "address",
          "name": "to",
          "type": "address"
        },
        {
          "internalType": "uint256",
          "name": "amount",
          "type": "uint256"
        }
      ],
      "name": "transfer",
      "outputs": [
        {
          "internalType": "bool",
          "name": "",
          "type": "bool"
        }
      ],
      "stateMutability": "nonpayable",
      "type": "function"
    },
    {
      "inputs": [
        {
          "internalType": "address",
          "name": "owner",
          "type": "address"
        }
      ],
      "name": "balanceOf",
      "outputs": [
        {
          "internalType": "uint256",
          "name": "balance",
          "type": "uint256"
        }
      ],
      "stateMutability": "view",
      "type": "function"
    },
    {
      "inputs": [
        {
          "internalType": "address",
          "name": "from",
          "type": "address"
        },
        {
          "internalType": "address",
          "name": "to",
          "type": "address"
        },
        {
          "internalType": "uint256",
          "name": "amount",
          "type": "uint256"
        }
      ],
      "name": "transferFrom",
      "outputs": [
        {
          "internalType": "bool",
          "name": "",
          "type": "bool"
        }
      ],
      "stateMutability": "nonpayable",
      "type": "function"
    },
    {
      "inputs": [
        {
          "internalType": "address",
          "name": "spender",
          "type": "address"
        },
        {
          "internalType": "uint256",
          "name": "amount",
          "type": "uint256"
        }
      ],
      "name": "approve",
      "outputs": [
        {
          "internalType": "bool",
          "name": "",
          "type": "bool"
        }
      ],
      "stateMutability": "nonpayable",
      "type": "function"
    },
    {
      "inputs": [
        {
          "internalType": "address",
          "name": "owner",
          "type": "address"
        },
        {
          "internalType": "address",
          "name": "spender",
          "type": "address"
        }
      ],
      "name": "allowance",
      "outputs": [
        {
          "internalType": "uint256",
          "name": "",
          "type": "uint256"
        }
      ],
      "stateMutability": "view",
      "type": "function"
    },
    {
      "inputs": [
        {
          "internalType": "address",
          "name": "account",
          "type": "address"
        },
        {
          "internalType": "uint256",
          "name": "amount",
          "type": "uint256"
        }
      ],
      "name": "mint",
      "outputs": [],
      "stateMutability": "nonpayable",
      "type": "function"
    },
    {
      "inputs": [
        {
          "internalType": "address",
          "name": "account",
          "type": "address"
        },
        {
          "internalType": "uint256",
          "name": "amount",
          "type": "uint256"
        }
      ],
      "name": "burn",
      "outputs": [],
      "stateMutability": "nonpayable",
      "type": "function"
    }
  ],
  "bytecode": "0x608060405234801561001057600080fd5b50610d78806100206000396000f3fe608060405234801561001057600080fd5b50600436106100ea5760003560e01c806340c10f191161008c5780639dc29fac116100665780639dc29fac146101f7578063a9059cbb1461020a578063dd62ed3e1461021d578063fc90ef181461025657600080fd5b806340c10f19146101b157806370a08231146101c657806395d89b41146101ef57600080fd5b806316048bc4116100c857806316048bc41461013d57806318160ddd1461016857806323b872dd1461017f578063313ce5671461019257600080fd5b806306fdde03146100ef578063095ea7b31461010d578063158ef93e14610130575b600080fd5b6100f7610269565b6040516101049190610963565b60405180910390f35b61012061011b3660046109cd565b6102f7565b6040519015158152602001610104565b6005546101209060ff1681565b600054610150906001600160a01b031681565b6040516001600160a01b039091168152602001610104565b61017160045481565b604051908152602001610104565b61012061018d3660046109f7565b610364565b60025461019f9060ff1681565b60405160ff9091168152602001610104565b6101c46101bf3660046109cd565b610576565b005b6101716101d4366004610a33565b6001600160a01b031660009081526006602052604090205490565b6100f7610611565b6101c46102053660046109cd565b61061e565b6101206102183660046109cd565b610699565b61017161022b366004610a4e565b6001600160a01b03918216600090815260076020908152604080832093909416825291909152205490565b6101c4610264366004610b24565b6107d2565b6001805461027690610bbd565b80601f01602080910402602001604051908101604052809291908181526020018280546102a290610bbd565b80156102ef5780601f106102c4576101008083540402835291602001916102ef565b820191906000526020600020905b8154815290600101906020018083116102d257829003601f168201915b505050505081565b3360008181526007602090815260408083206001600160a01b038716808552925280832085905551919290917f8c5be1e5ebec7d5bd14f71427d1e84f3dd0314c0f7b2291e5b200ac8c7c3b925906103529086815260200190565b60405180910390a35060015b92915050565b60006001600160a01b0383166103b75760405162461bcd60e51b8152602060048201526013602482015272544f5f414444524553535f49535f454d50545960681b60448201526064015b60405180910390fd5b6001600160a01b0384166000908152600660205260409020548211156104145760405162461bcd60e51b81526020600482015260126024820152710848298829c868abe9c9ea8be8a9c9eaa8e960731b60448201526064016103ae565b6001600160a01b038416600090815260076020908152604080832033845290915290205482111561047e5760405162461bcd60e51b815260206004820152601460248201527308298989eae829c868abe9c9ea8be8a9c9eaa8e960631b60448201526064016103ae565b6001600160a01b0384166000908152600660205260409020546104a190836108c9565b6001600160a01b0380861660009081526006602052604080822093909355908516815220546104d09083610918565b6001600160a01b03808516600090815260066020908152604080832094909455918716815260078252828120338252909152205461050e90836108c9565b6001600160a01b03858116600081815260076020908152604080832033845282529182902094909455518581529186169290917fddf252ad1be2c89b69c2b068fc378daa952ba7f163c4a11628f55a4df523b3ef910160405180910390a35060019392505050565b6000546001600160a01b031633146105bc5760405162461bcd60e51b81526020600482015260096024820152682727aa2fa7aba722a960b91b60448201526064016103ae565b806004546105ca9190610c0d565b6004556001600160a01b0382166000908152600660205260409020546105f1908290610c0d565b6001600160a01b0390921660009081526006602052604090209190915550565b6003805461027690610bbd565b6000546001600160a01b031633146106645760405162461bcd60e51b81526020600482015260096024820152682727aa2fa7aba722a960b91b60448201526064016103ae565b806004546106729190610c20565b6004556001600160a01b0382166000908152600660205260409020546105f1908290610c20565b60006001600160a01b0383166106e75760405162461bcd60e51b8152602060048201526013602482015272544f5f414444524553535f49535f454d50545960681b60448201526064016103ae565b3360009081526006602052604090205482111561073b5760405162461bcd60e51b81526020600482015260126024820152710848298829c868abe9c9ea8be8a9c9eaa8e960731b60448201526064016103ae565b3360009081526006602052604090205461075590836108c9565b33600090815260066020526040808220929092556001600160a01b038516815220546107819083610918565b6001600160a01b0384166000818152600660205260409081902092909255905133907fddf252ad1be2c89b69c2b068fc378daa952ba7f163c4a11628f55a4df523b3ef906103529086815260200190565b60055460ff16156108195760405162461bcd60e51b81526020600482015260116024820152701513d2d15397d253925512505312569151607a1b60448201526064016103ae565b6005805460ff19166001908117909155600080546001600160a01b0388166001600160a01b031990911681178255600487905581526006602052604090208590556108648482610c82565b5060036108718382610c82565b506002805460ff191660ff83161790556040518481526001600160a01b038616906000907fddf252ad1be2c89b69c2b068fc378daa952ba7f163c4a11628f55a4df523b3ef9060200160405180910390a35050505050565b6000828211156109075760405162461bcd60e51b815260206004820152600960248201526829aaa12fa2a92927a960b91b60448201526064016103ae565b6109118284610c20565b9392505050565b6000806109258385610c0d565b9050838110156109115760405162461bcd60e51b815260206004820152600960248201526820a2222fa2a92927a960b91b60448201526064016103ae565b600060208083528351808285015260005b8181101561099057858101830151858201604001528201610974565b506000604082860101526040601f19601f8301168501019250505092915050565b80356001600160a01b03811681146109c857600080fd5b919050565b600080604083850312156109e057600080fd5b6109e9836109b1565b946020939093013593505050565b600080600060608486031215610a0c57600080fd5b610a15846109b1565b9250610a23602085016109b1565b9150604084013590509250925092565b600060208284031215610a4557600080fd5b610911826109b1565b60008060408385031215610a6157600080fd5b610a6a836109b1565b9150610a78602084016109b1565b90509250929050565b634e487b7160e01b600052604160045260246000fd5b600082601f830112610aa857600080fd5b813567ffffffffffffffff80821115610ac357610ac3610a81565b604051601f8301601f19908116603f01168101908282118183101715610aeb57610aeb610a81565b81604052838152866020858801011115610b0457600080fd5b836020870160208301376000602085830101528094505050505092915050565b600080600080600060a08688031215610b3c57600080fd5b610b45866109b1565b945060208601359350604086013567ffffffffffffffff80821115610b6957600080fd5b610b7589838a01610a97565b94506060880135915080821115610b8b57600080fd5b50610b9888828901610a97565b925050608086013560ff81168114610baf57600080fd5b809150509295509295909350565b600181811c90821680610bd157607f821691505b602082108103610bf157634e487b7160e01b600052602260045260246000fd5b50919050565b634e487b7160e01b600052601160045260246000fd5b8082018082111561035e5761035e610bf7565b8181038181111561035e5761035e610bf7565b601f821115610c7d57600081815260208120601f850160051c81016020861015610c5a5750805b601f850160051c820191505b81811015610c7957828155600101610c66565b5050505b505050565b815167ffffffffffffffff811115610c9c57610c9c610a81565b610cb081610caa8454610bbd565b84610c33565b602080601f831160018114610ce55760008415610ccd5750858301515b600019600386901b1c1916600185901b178555610c79565b600085815260208120601f198616915b82811015610d1457888601518255948401946001909101908401610cf5565b5085821015610d325787850151600019600388901b60f8161c191681555b5050505050600190811b0190555056fea2646970667358221220ae997dac290d2d6fe612dc06d8cdf50b7724e949c62ace7587d9944ba0c68e8564736f6c63430008130033",
  "immutableReferences": {},
  "source": "// SPDX-License-Identifier: MIT\r\n\r\n/*\r\nCopy from: https://etherscan.io/address/0x8443a5bd91c8f68582f90dd3354f750900c5e8cc#code\r\n*/\r\npragma solidity 0.8.19;\r\n\r\n/**\r\n * @title SafeMath\r\n * @author DODO Breeder\r\n *\r\n * @notice Math operations with safety checks that revert on error\r\n */\r\nlibrary SafeMath {\r\n  function mul(uint256 a, uint256 b) internal pure returns (uint256) {\r\n    if (a == 0) {\r\n      return 0;\r\n    }\r\n\r\n    uint256 c = a * b;\r\n    require(c / a == b, 'MUL_ERROR');\r\n\r\n    return c;\r\n  }\r\n\r\n  function div(uint256 a, uint256 b) internal pure returns (uint256) {\r\n    require(b > 0, 'DIVIDING_ERROR');\r\n    return a / b;\r\n  }\r\n\r\n  function divCeil(uint256 a, uint256 b) internal pure returns (uint256) {\r\n    uint256 quotient = div(a, b);\r\n    uint256 remainder = a - quotient * b;\r\n    if (remainder > 0) {\r\n      return quotient + 1;\r\n    } else {\r\n      return quotient;\r\n    }\r\n  }\r\n\r\n  function sub(uint256 a, uint256 b) internal pure returns (uint256) {\r\n    require(b <= a, 'SUB_ERROR');\r\n    return a - b;\r\n  }\r\n\r\n  function add(uint256 a, uint256 b) internal pure returns (uint256) {\r\n    uint256 c = a + b;\r\n    require(c >= a, 'ADD_ERROR');\r\n    return c;\r\n  }\r\n\r\n  function sqrt(uint256 x) internal pure returns (uint256 y) {\r\n    uint256 z = x / 2 + 1;\r\n    y = x;\r\n    while (z < y) {\r\n      y = z;\r\n      z = (x / z + z) / 2;\r\n    }\r\n  }\r\n}\r\n\r\ncontract InitializableERC20 {\r\n  using SafeMath for uint256;\r\n\r\n  address public _OWNER_;\r\n  string public name;\r\n  uint8 public decimals;\r\n  string public symbol;\r\n  uint256 public totalSupply;\r\n\r\n  bool public initialized;\r\n\r\n  mapping(address => uint256) balances;\r\n  mapping(address => mapping(address => uint256)) internal allowed;\r\n\r\n  event Transfer(address indexed from, address indexed to, uint256 amount);\r\n  event Approval(address indexed owner, address indexed spender, uint256 amount);\r\n\r\n  modifier onlyOwner() {\r\n    require(msg.sender == _OWNER_, 'NOT_OWNER');\r\n    _;\r\n  }\r\n\r\n  function init(\r\n    address _creator,\r\n    uint256 _totalSupply,\r\n    string memory _name,\r\n    string memory _symbol,\r\n    uint8 _decimals\r\n  ) public {\r\n    require(!initialized, 'TOKEN_INITIALIZED');\r\n    initialized = true;\r\n\r\n    _OWNER_ = _creator;\r\n    totalSupply = _totalSupply;\r\n    balances[_creator] = _totalSupply;\r\n    name = _name;\r\n    symbol = _symbol;\r\n    decimals = _decimals;\r\n    emit Transfer(address(0), _creator, _totalSupply);\r\n  }\r\n\r\n  function transfer(address to, uint256 amount) public returns (bool) {\r\n    require(to != address(0), 'TO_ADDRESS_IS_EMPTY');\r\n    require(amount <= balances[msg.sender], 'BALANCE_NOT_ENOUGH');\r\n\r\n    balances[msg.sender] = balances[msg.sender].sub(amount);\r\n    balances[to] = balances[to].add(amount);\r\n    emit Transfer(msg.sender, to, amount);\r\n    return true;\r\n  }\r\n\r\n  function balanceOf(address owner) public view returns (uint256 balance) {\r\n    return balances[owner];\r\n  }\r\n\r\n  function transferFrom(address from, address to, uint256 amount) public returns (bool) {\r\n    require(to != address(0), 'TO_ADDRESS_IS_EMPTY');\r\n    require(amount <= balances[from], 'BALANCE_NOT_ENOUGH');\r\n    require(amount <= allowed[from][msg.sender], 'ALLOWANCE_NOT_ENOUGH');\r\n\r\n    balances[from] = balances[from].sub(amount);\r\n    balances[to] = balances[to].add(amount);\r\n    allowed[from][msg.sender] = allowed[from][msg.sender].sub(amount);\r\n    emit Transfer(from, to, amount);\r\n    return true;\r\n  }\r\n\r\n  function approve(address spender, uint256 amount) public returns (bool) {\r\n    allowed[msg.sender][spender] = amount;\r\n    emit Approval(msg.sender, spender, amount);\r\n    return true;\r\n  }\r\n\r\n  function allowance(address owner, address spender) public view returns (uint256) {\r\n    return allowed[owner][spender];\r\n  }\r\n\r\n  //--------- mint/burn -----------\r\n  function mint(address account, uint256 amount) external onlyOwner {\r\n    totalSupply = totalSupply + amount;\r\n    balances[account] = balances[account] + amount;\r\n  }\r\n\r\n  function burn(address account, uint256 amount) external onlyOwner {\r\n    totalSupply = totalSupply - amount;\r\n    balances[account] = balances[account] - amount;\r\n  }\r\n}\r\n",
  "sourcePath": "E:\\git_2023\\tintin-lesson-7\\truffle\\contracts\\InitializableERC20.sol",
  "compiler": {
    "name": "solc",
    "version": "0.8.19+commit.7dd6d404.Emscripten.clang"
  },
  "schemaVersion": "3.4.13",
  "updatedAt": "2023-04-27T04:13:55.662Z",
  "devdoc": {
    "kind": "dev",
    "methods": {},
    "version": 1
  },
  "userdoc": {
    "kind": "user",
    "methods": {},
    "version": 1
  }
}