{
  "contractName": "Lesson7ERC20V3Factory",
  "abi": [
    {
      "inputs": [
        {
          "internalType": "address",
          "name": "cloneFactory",
          "type": "address"
        },
        {
          "internalType": "address",
          "name": "erc20Template",
          "type": "address"
        },
        {
          "internalType": "address",
          "name": "customErc20Template",
          "type": "address"
        },
        {
          "internalType": "address",
          "name": "customMintableErc20Template",
          "type": "address"
        },
        {
          "internalType": "uint256",
          "name": "createFee",
          "type": "uint256"
        }
      ],
      "stateMutability": "nonpayable",
      "type": "constructor"
    },
    {
      "anonymous": false,
      "inputs": [
        {
          "indexed": false,
          "internalType": "uint256",
          "name": "newFee",
          "type": "uint256"
        }
      ],
      "name": "ChangeCreateFee",
      "type": "event"
    },
    {
      "anonymous": false,
      "inputs": [
        {
          "indexed": false,
          "internalType": "address",
          "name": "newCustomMintableTemplate",
          "type": "address"
        }
      ],
      "name": "ChangeCustomMintableTemplate",
      "type": "event"
    },
    {
      "anonymous": false,
      "inputs": [
        {
          "indexed": false,
          "internalType": "address",
          "name": "newCustomTemplate",
          "type": "address"
        }
      ],
      "name": "ChangeCustomTemplate",
      "type": "event"
    },
    {
      "anonymous": false,
      "inputs": [
        {
          "indexed": false,
          "internalType": "address",
          "name": "newStdTemplate",
          "type": "address"
        }
      ],
      "name": "ChangeStdTemplate",
      "type": "event"
    },
    {
      "anonymous": false,
      "inputs": [
        {
          "indexed": false,
          "internalType": "address",
          "name": "erc20",
          "type": "address"
        },
        {
          "indexed": false,
          "internalType": "address",
          "name": "creator",
          "type": "address"
        },
        {
          "indexed": false,
          "internalType": "uint256",
          "name": "erc20Type",
          "type": "uint256"
        }
      ],
      "name": "NewERC20",
      "type": "event"
    },
    {
      "anonymous": false,
      "inputs": [
        {
          "indexed": true,
          "internalType": "address",
          "name": "previousOwner",
          "type": "address"
        },
        {
          "indexed": true,
          "internalType": "address",
          "name": "newOwner",
          "type": "address"
        }
      ],
      "name": "OwnershipTransferPrepared",
      "type": "event"
    },
    {
      "anonymous": false,
      "inputs": [
        {
          "indexed": true,
          "internalType": "address",
          "name": "previousOwner",
          "type": "address"
        },
        {
          "indexed": true,
          "internalType": "address",
          "name": "newOwner",
          "type": "address"
        }
      ],
      "name": "OwnershipTransferred",
      "type": "event"
    },
    {
      "anonymous": false,
      "inputs": [
        {
          "indexed": false,
          "internalType": "address",
          "name": "account",
          "type": "address"
        },
        {
          "indexed": false,
          "internalType": "uint256",
          "name": "amount",
          "type": "uint256"
        }
      ],
      "name": "Withdraw",
      "type": "event"
    },
    {
      "stateMutability": "payable",
      "type": "fallback"
    },
    {
      "inputs": [],
      "name": "_CLONE_FACTORY_",
      "outputs": [
        {
          "internalType": "address",
          "name": "",
          "type": "address"
        }
      ],
      "stateMutability": "view",
      "type": "function"
    },
    {
      "inputs": [],
      "name": "_CREATE_FEE_",
      "outputs": [
        {
          "internalType": "uint256",
          "name": "",
          "type": "uint256"
        }
      ],
      "stateMutability": "view",
      "type": "function"
    },
    {
      "inputs": [],
      "name": "_CUSTOM_ERC20_TEMPLATE_",
      "outputs": [
        {
          "internalType": "address",
          "name": "",
          "type": "address"
        }
      ],
      "stateMutability": "view",
      "type": "function"
    },
    {
      "inputs": [],
      "name": "_CUSTOM_MINTABLE_ERC20_TEMPLATE_",
      "outputs": [
        {
          "internalType": "address",
          "name": "",
          "type": "address"
        }
      ],
      "stateMutability": "view",
      "type": "function"
    },
    {
      "inputs": [],
      "name": "_ERC20_TEMPLATE_",
      "outputs": [
        {
          "internalType": "address",
          "name": "",
          "type": "address"
        }
      ],
      "stateMutability": "view",
      "type": "function"
    },
    {
      "inputs": [],
      "name": "_NEW_OWNER_",
      "outputs": [
        {
          "internalType": "address",
          "name": "",
          "type": "address"
        }
      ],
      "stateMutability": "view",
      "type": "function"
    },
    {
      "inputs": [],
      "name": "_OWNER_",
      "outputs": [
        {
          "internalType": "address",
          "name": "",
          "type": "address"
        }
      ],
      "stateMutability": "view",
      "type": "function"
    },
    {
      "inputs": [
        {
          "internalType": "address",
          "name": "",
          "type": "address"
        },
        {
          "internalType": "uint256",
          "name": "",
          "type": "uint256"
        }
      ],
      "name": "_USER_CUSTOM_MINTABLE_REGISTRY_",
      "outputs": [
        {
          "internalType": "address",
          "name": "",
          "type": "address"
        }
      ],
      "stateMutability": "view",
      "type": "function"
    },
    {
      "inputs": [
        {
          "internalType": "address",
          "name": "",
          "type": "address"
        },
        {
          "internalType": "uint256",
          "name": "",
          "type": "uint256"
        }
      ],
      "name": "_USER_CUSTOM_REGISTRY_",
      "outputs": [
        {
          "internalType": "address",
          "name": "",
          "type": "address"
        }
      ],
      "stateMutability": "view",
      "type": "function"
    },
    {
      "inputs": [
        {
          "internalType": "address",
          "name": "",
          "type": "address"
        },
        {
          "internalType": "uint256",
          "name": "",
          "type": "uint256"
        }
      ],
      "name": "_USER_STD_REGISTRY_",
      "outputs": [
        {
          "internalType": "address",
          "name": "",
          "type": "address"
        }
      ],
      "stateMutability": "view",
      "type": "function"
    },
    {
      "inputs": [],
      "name": "claimOwnership",
      "outputs": [],
      "stateMutability": "nonpayable",
      "type": "function"
    },
    {
      "inputs": [
        {
          "internalType": "address",
          "name": "newOwner",
          "type": "address"
        }
      ],
      "name": "initOwner",
      "outputs": [],
      "stateMutability": "nonpayable",
      "type": "function"
    },
    {
      "inputs": [
        {
          "internalType": "address",
          "name": "newOwner",
          "type": "address"
        }
      ],
      "name": "transferOwnership",
      "outputs": [],
      "stateMutability": "nonpayable",
      "type": "function"
    },
    {
      "stateMutability": "payable",
      "type": "receive"
    },
    {
      "inputs": [
        {
          "internalType": "uint256",
          "name": "totalSupply",
          "type": "uint256"
        },
        {
          "internalType": "string",
          "name": "name",
          "type": "string"
        },
        {
          "internalType": "string",
          "name": "symbol",
          "type": "string"
        },
        {
          "internalType": "uint8",
          "name": "decimals",
          "type": "uint8"
        }
      ],
      "name": "createStdERC20",
      "outputs": [
        {
          "internalType": "address",
          "name": "newERC20",
          "type": "address"
        }
      ],
      "stateMutability": "payable",
      "type": "function"
    },
    {
      "inputs": [
        {
          "internalType": "uint256",
          "name": "totalSupply",
          "type": "uint256"
        },
        {
          "internalType": "string",
          "name": "name",
          "type": "string"
        },
        {
          "internalType": "string",
          "name": "symbol",
          "type": "string"
        },
        {
          "internalType": "uint8",
          "name": "decimals",
          "type": "uint8"
        },
        {
          "internalType": "uint256",
          "name": "tradeBurnRatio",
          "type": "uint256"
        },
        {
          "internalType": "uint256",
          "name": "tradeFeeRatio",
          "type": "uint256"
        },
        {
          "internalType": "address",
          "name": "teamAccount",
          "type": "address"
        }
      ],
      "name": "createCustomERC20",
      "outputs": [
        {
          "internalType": "address",
          "name": "newCustomERC20",
          "type": "address"
        }
      ],
      "stateMutability": "payable",
      "type": "function"
    },
    {
      "inputs": [
        {
          "internalType": "uint256",
          "name": "initSupply",
          "type": "uint256"
        },
        {
          "internalType": "string",
          "name": "name",
          "type": "string"
        },
        {
          "internalType": "string",
          "name": "symbol",
          "type": "string"
        },
        {
          "internalType": "uint8",
          "name": "decimals",
          "type": "uint8"
        },
        {
          "internalType": "uint256",
          "name": "tradeBurnRatio",
          "type": "uint256"
        },
        {
          "internalType": "uint256",
          "name": "tradeFeeRatio",
          "type": "uint256"
        },
        {
          "internalType": "address",
          "name": "teamAccount",
          "type": "address"
        }
      ],
      "name": "createCustomMintableERC20",
      "outputs": [
        {
          "internalType": "address",
          "name": "newCustomMintableERC20",
          "type": "address"
        }
      ],
      "stateMutability": "payable",
      "type": "function"
    },
    {
      "inputs": [
        {
          "internalType": "address",
          "name": "user",
          "type": "address"
        }
      ],
      "name": "getTokenByUser",
      "outputs": [
        {
          "internalType": "address[]",
          "name": "stds",
          "type": "address[]"
        },
        {
          "internalType": "address[]",
          "name": "customs",
          "type": "address[]"
        },
        {
          "internalType": "address[]",
          "name": "mintables",
          "type": "address[]"
        }
      ],
      "stateMutability": "view",
      "type": "function"
    },
    {
      "inputs": [
        {
          "internalType": "uint256",
          "name": "newFee",
          "type": "uint256"
        }
      ],
      "name": "changeCreateFee",
      "outputs": [],
      "stateMutability": "nonpayable",
      "type": "function"
    },
    {
      "inputs": [],
      "name": "withdraw",
      "outputs": [],
      "stateMutability": "nonpayable",
      "type": "function"
    },
    {
      "inputs": [
        {
          "internalType": "address",
          "name": "newStdTemplate",
          "type": "address"
        }
      ],
      "name": "updateStdTemplate",
      "outputs": [],
      "stateMutability": "nonpayable",
      "type": "function"
    },
    {
      "inputs": [
        {
          "internalType": "address",
          "name": "newCustomTemplate",
          "type": "address"
        }
      ],
      "name": "updateCustomTemplate",
      "outputs": [],
      "stateMutability": "nonpayable",
      "type": "function"
    },
    {
      "inputs": [
        {
          "internalType": "address",
          "name": "newCustomMintableTemplate",
          "type": "address"
        }
      ],
      "name": "updateCustomMintableTemplate",
      "outputs": [],
      "stateMutability": "nonpayable",
      "type": "function"
    }
  ],
  "bytecode": "0x60a06040523480156200001157600080fd5b506040516200148a3803806200148a8339810160408190526200003491620000a0565b6001600160a01b03948516608052600280549486166001600160a01b03199586161790556003805493861693851693909317909255600480549190941692169190911790915560055562000107565b80516001600160a01b03811681146200009b57600080fd5b919050565b600080600080600060a08688031215620000b957600080fd5b620000c48662000083565b9450620000d46020870162000083565b9350620000e46040870162000083565b9250620000f46060870162000083565b9150608086015190509295509295909350565b60805161135262000138600039600081816103bb01528181610631015281816109050152610b1d01526113526000f3fe60806040526004361061012d5760003560e01c806397381760116100a5578063ca7caaad1161006c578063ca7caaad1461031a578063d029d5211461033a578063e1f70b6b14610369578063e6acc72d14610389578063eb774d05146103a9578063f2fde38b146103dd57005b80639738176014610294578063aae79d0c146102b4578063aef08a54146102d4578063afa16b40146102e7578063c3223a181461030757005b806335c70da0116100f457806335c70da0146101f75780633ccfd60b14610217578063425a70ef1461022c57806347b3f0e31461023f5780634e71e0c81461025f5780638456db151461027457005b8063051396ff146101365780630d0092971461017357806316048bc41461019357806321235d4a146101b357806328ab047f146101d757005b3661013457005b005b34801561014257600080fd5b50610156610151366004610edc565b6103fd565b6040516001600160a01b0390911681526020015b60405180910390f35b34801561017f57600080fd5b5061013461018e366004610f08565b610435565b34801561019f57600080fd5b50600054610156906001600160a01b031681565b3480156101bf57600080fd5b506101c960055481565b60405190815260200161016a565b3480156101e357600080fd5b506101346101f2366004610f08565b6104bd565b34801561020357600080fd5b50610156610212366004610edc565b61053c565b34801561022357600080fd5b50610134610558565b61015661023a366004610fe5565b6105e8565b34801561024b57600080fd5b5061013461025a366004610f08565b610799565b34801561026b57600080fd5b50610134610811565b34801561028057600080fd5b50600154610156906001600160a01b031681565b3480156102a057600080fd5b50600254610156906001600160a01b031681565b3480156102c057600080fd5b50600354610156906001600160a01b031681565b6101566102e2366004610fe5565b6108bf565b3480156102f357600080fd5b50610134610302366004610f08565b610a5f565b61015661031536600461108b565b610ad7565b34801561032657600080fd5b50610156610335366004610edc565b610c78565b34801561034657600080fd5b5061035a610355366004610f08565b610c94565b60405161016a9392919061114d565b34801561037557600080fd5b50600454610156906001600160a01b031681565b34801561039557600080fd5b506101346103a4366004611190565b610de0565b3480156103b557600080fd5b506101567f000000000000000000000000000000000000000000000000000000000000000081565b3480156103e957600080fd5b506101346103f8366004610f08565b610e3f565b6007602052816000526040600020818154811061041957600080fd5b6000918252602090912001546001600160a01b03169150829050565b600154600160a01b900460ff16156104875760405162461bcd60e51b815260206004820152601060248201526f1113d113d7d25392551250531256915160821b60448201526064015b60405180910390fd5b6001805460ff60a01b1916600160a01b179055600080546001600160a01b039092166001600160a01b0319909216919091179055565b6000546001600160a01b031633146104e75760405162461bcd60e51b815260040161047e906111a9565b600280546001600160a01b0319166001600160a01b0383169081179091556040519081527fedc968a09f964f0ab07f91c96dd61bbfd3ce2b438ede9e63721d56867ea53365906020015b60405180910390a150565b6006602052816000526040600020818154811061041957600080fd5b6000546001600160a01b031633146105825760405162461bcd60e51b815260040161047e906111a9565b6040514790339082156108fc029083906000818181858888f193505050501580156105b1573d6000803e3d6000fd5b5060408051338152602081018390527f884edad9ce6fa2440d8a54cc123490eb96d2768479d49ff9c7366125a94243649101610531565b600060055434101561060c5760405162461bcd60e51b815260040161047e906111cc565b600480546040516340925bc760e11b81526001600160a01b03918216928101929092527f00000000000000000000000000000000000000000000000000000000000000001690638124b78e906024016020604051808303816000875af115801561067a573d6000803e3d6000fd5b505050506040513d601f19601f8201168201806040525081019061069e91906111fb565b604051634ca6082560e01b81529091506001600160a01b03821690634ca60825906106db9033908c908c908c908c908c908c908c9060040161125e565b600060405180830381600087803b1580156106f557600080fd5b505af1158015610709573d6000803e3d6000fd5b505033600081815260086020908152604080832080546001810182559084529282902090920180546001600160a01b0319166001600160a01b0388169081179091558251908152908101929092526002908201527f1393d5edd44c8974d9f4be5f459e4f6c6c67917e4400784fc61d8a0872a9fc38925060600190505b60405180910390a1979650505050505050565b6000546001600160a01b031633146107c35760405162461bcd60e51b815260040161047e906111a9565b600480546001600160a01b0319166001600160a01b0383169081179091556040519081527f1689dd58380943f413ccf540c7f8f63eac346f39503653f23cb96ffdb5079f1090602001610531565b6001546001600160a01b0316331461085b5760405162461bcd60e51b815260206004820152600d60248201526c494e56414c49445f434c41494d60981b604482015260640161047e565b600154600080546040516001600160a01b0393841693909116917f8be0079c531659141344cd1fd0a4f28419497f9722a3daafe3b4186f6b6457e091a360018054600080546001600160a01b03199081166001600160a01b03841617909155169055565b60006005543410156108e35760405162461bcd60e51b815260040161047e906111cc565b6003546040516340925bc760e11b81526001600160a01b0391821660048201527f000000000000000000000000000000000000000000000000000000000000000090911690638124b78e906024016020604051808303816000875af1158015610950573d6000803e3d6000fd5b505050506040513d601f19601f8201168201806040525081019061097491906111fb565b604051634ca6082560e01b81529091506001600160a01b03821690634ca60825906109b19033908c908c908c908c908c908c908c9060040161125e565b600060405180830381600087803b1580156109cb57600080fd5b505af11580156109df573d6000803e3d6000fd5b50503360008181526007602090815260408083208054600180820183559185529383902090930180546001600160a01b0319166001600160a01b038916908117909155815190815291820193909352918201527f1393d5edd44c8974d9f4be5f459e4f6c6c67917e4400784fc61d8a0872a9fc3892506060019050610786565b6000546001600160a01b03163314610a895760405162461bcd60e51b815260040161047e906111a9565b600380546001600160a01b0319166001600160a01b0383169081179091556040519081527fc4c30c18f3faff717bb7f2aeb67ee7b86c03183f60d589bb0864799cfa2da2f590602001610531565b6000600554341015610afb5760405162461bcd60e51b815260040161047e906111cc565b6002546040516340925bc760e11b81526001600160a01b0391821660048201527f000000000000000000000000000000000000000000000000000000000000000090911690638124b78e906024016020604051808303816000875af1158015610b68573d6000803e3d6000fd5b505050506040513d601f19601f82011682018060405250810190610b8c91906111fb565b604051631f921de360e31b81529091506001600160a01b0382169063fc90ef1890610bc390339089908990899089906004016112cd565b600060405180830381600087803b158015610bdd57600080fd5b505af1158015610bf1573d6000803e3d6000fd5b505033600081815260066020908152604080832080546001810182559084528284200180546001600160a01b0319166001600160a01b038916908117909155815190815291820193909352918201527f1393d5edd44c8974d9f4be5f459e4f6c6c67917e4400784fc61d8a0872a9fc389250606001905060405180910390a1949350505050565b6008602052816000526040600020818154811061041957600080fd5b6001600160a01b03811660009081526006602090815260408083206007835281842060088452938290208154835181860281018601909452808452606095869586959193928591830182828015610d1457602002820191906000526020600020905b81546001600160a01b03168152600190910190602001808311610cf6575b5050505050925081805480602002602001604051908101604052809291908181526020018280548015610d7057602002820191906000526020600020905b81546001600160a01b03168152600190910190602001808311610d52575b5050505050915080805480602002602001604051908101604052809291908181526020018280548015610dcc57602002820191906000526020600020905b81546001600160a01b03168152600190910190602001808311610dae575b505050505090509250925092509193909250565b6000546001600160a01b03163314610e0a5760405162461bcd60e51b815260040161047e906111a9565b60058190556040518181527fe2a626dd21b2ca43b97ef589791d30517db1c9676631e68d57b444e2e182690990602001610531565b6000546001600160a01b03163314610e695760405162461bcd60e51b815260040161047e906111a9565b600080546040516001600160a01b03808516939216917fdcf55418cee3220104fef63f979ff3c4097ad240c0c43dcb33ce837748983e6291a3600180546001600160a01b0319166001600160a01b0392909216919091179055565b6001600160a01b0381168114610ed957600080fd5b50565b60008060408385031215610eef57600080fd5b8235610efa81610ec4565b946020939093013593505050565b600060208284031215610f1a57600080fd5b8135610f2581610ec4565b9392505050565b634e487b7160e01b600052604160045260246000fd5b600082601f830112610f5357600080fd5b813567ffffffffffffffff80821115610f6e57610f6e610f2c565b604051601f8301601f19908116603f01168101908282118183101715610f9657610f96610f2c565b81604052838152866020858801011115610faf57600080fd5b836020870160208301376000602085830101528094505050505092915050565b803560ff81168114610fe057600080fd5b919050565b600080600080600080600060e0888a03121561100057600080fd5b87359650602088013567ffffffffffffffff8082111561101f57600080fd5b61102b8b838c01610f42565b975060408a013591508082111561104157600080fd5b5061104e8a828b01610f42565b95505061105d60608901610fcf565b93506080880135925060a0880135915060c088013561107b81610ec4565b8091505092959891949750929550565b600080600080608085870312156110a157600080fd5b84359350602085013567ffffffffffffffff808211156110c057600080fd5b6110cc88838901610f42565b945060408701359150808211156110e257600080fd5b506110ef87828801610f42565b9250506110fe60608601610fcf565b905092959194509250565b600081518084526020808501945080840160005b838110156111425781516001600160a01b03168752958201959082019060010161111d565b509495945050505050565b6060815260006111606060830186611109565b82810360208401526111728186611109565b905082810360408401526111868185611109565b9695505050505050565b6000602082840312156111a257600080fd5b5035919050565b6020808252600990820152682727aa2fa7aba722a960b91b604082015260600190565b602080825260159082015274086a48a82a88abe8c8a8abe9c9ea8be8a9c9eaa8e9605b1b604082015260600190565b60006020828403121561120d57600080fd5b8151610f2581610ec4565b6000815180845260005b8181101561123e57602081850181015186830182015201611222565b506000602082860101526020601f19601f83011685010191505092915050565b6001600160a01b038981168252602082018990526101006040830181905260009161128b8483018b611218565b9150838203606085015261129f828a611218565b925060ff881660808501528660a08501528560c085015280851660e085015250509998505050505050505050565b60018060a01b038616815284602082015260a0604082015260006112f460a0830186611218565b82810360608401526113068186611218565b91505060ff83166080830152969550505050505056fea2646970667358221220a6482f5bffbca416de3c87ed801894313eac8ff69a3b36edf4a453f24c08712e64736f6c63430008130033",
  "immutableReferences": {
    "730": [
      {
        "length": 32,
        "start": 955
      },
      {
        "length": 32,
        "start": 1585
      },
      {
        "length": 32,
        "start": 2309
      },
      {
        "length": 32,
        "start": 2845
      }
    ]
  },
  "source": "// SPDX-License-Identifier: MIT\r\npragma solidity 0.8.19;\r\n\r\npragma experimental ABIEncoderV2;\r\n\r\ninterface ICloneFactory {\r\n  function clone(address prototype) external returns (address proxy);\r\n}\r\n\r\n// introduction of proxy mode design: https://docs.openzeppelin.com/upgrades/2.8/\r\n// minimum implementation of transparent proxy: https://eips.ethereum.org/EIPS/eip-1167\r\n\r\ncontract CloneFactory is ICloneFactory {\r\n  function clone(address prototype) external override returns (address proxy) {\r\n    bytes20 targetBytes = bytes20(prototype);\r\n    assembly {\r\n      let clone := mload(0x40)\r\n      mstore(clone, 0x3d602d80600a3d3981f3363d3d373d3d3d363d73000000000000000000000000)\r\n      mstore(add(clone, 0x14), targetBytes)\r\n      mstore(add(clone, 0x28), 0x5af43d82803e903d91602b57fd5bf30000000000000000000000000000000000)\r\n      proxy := create(0, clone, 0x37)\r\n    }\r\n    return proxy;\r\n  }\r\n}\r\n\r\n// File: contracts/lib/InitializableOwnable.sol\r\n\r\n/**\r\n * @title Ownable\r\n * @author DODO Breeder\r\n *\r\n * @notice Ownership related functions\r\n */\r\ncontract InitializableOwnable {\r\n  address public _OWNER_;\r\n  address public _NEW_OWNER_;\r\n  bool internal _INITIALIZED_;\r\n\r\n  // ============ Events ============\r\n\r\n  event OwnershipTransferPrepared(address indexed previousOwner, address indexed newOwner);\r\n\r\n  event OwnershipTransferred(address indexed previousOwner, address indexed newOwner);\r\n\r\n  // ============ Modifiers ============\r\n\r\n  modifier notInitialized() {\r\n    require(!_INITIALIZED_, 'DODO_INITIALIZED');\r\n    _;\r\n  }\r\n\r\n  modifier onlyOwner() {\r\n    require(msg.sender == _OWNER_, 'NOT_OWNER');\r\n    _;\r\n  }\r\n\r\n  // ============ Functions ============\r\n\r\n  function initOwner(address newOwner) public notInitialized {\r\n    _INITIALIZED_ = true;\r\n    _OWNER_ = newOwner;\r\n  }\r\n\r\n  function transferOwnership(address newOwner) public onlyOwner {\r\n    emit OwnershipTransferPrepared(_OWNER_, newOwner);\r\n    _NEW_OWNER_ = newOwner;\r\n  }\r\n\r\n  function claimOwnership() public {\r\n    require(msg.sender == _NEW_OWNER_, 'INVALID_CLAIM');\r\n    emit OwnershipTransferred(_OWNER_, _NEW_OWNER_);\r\n    _OWNER_ = _NEW_OWNER_;\r\n    _NEW_OWNER_ = address(0);\r\n  }\r\n}\r\n\r\n// File: contracts/Factory/ERC20V3Factory.sol\r\n\r\ninterface IStdERC20 {\r\n  function init(\r\n    address _creator,\r\n    uint256 _totalSupply,\r\n    string memory _name,\r\n    string memory _symbol,\r\n    uint8 _decimals\r\n  ) external;\r\n}\r\n\r\ninterface ICustomERC20 {\r\n  function init(\r\n    address _creator,\r\n    uint256 _initSupply,\r\n    string memory _name,\r\n    string memory _symbol,\r\n    uint8 _decimals,\r\n    uint256 _tradeBurnRatio,\r\n    uint256 _tradeFeeRatio,\r\n    address _team\r\n  ) external;\r\n}\r\n\r\n/**\r\n * @title DODO ERC20V2Factory\r\n * @author DODO Breeder\r\n *\r\n * @notice Help user to create erc20 token\r\n */\r\ncontract Lesson7ERC20V3Factory is InitializableOwnable {\r\n  // ============ Templates ============\r\n\r\n  address public immutable _CLONE_FACTORY_;\r\n  address public _ERC20_TEMPLATE_;\r\n  address public _CUSTOM_ERC20_TEMPLATE_;\r\n  address public _CUSTOM_MINTABLE_ERC20_TEMPLATE_;\r\n  uint256 public _CREATE_FEE_;\r\n\r\n  // ============ Events ============\r\n  // 0 Std 1 TradeBurn or TradeFee 2 Mintable\r\n  event NewERC20(address erc20, address creator, uint256 erc20Type);\r\n  event ChangeCreateFee(uint256 newFee);\r\n  event Withdraw(address account, uint256 amount);\r\n  event ChangeStdTemplate(address newStdTemplate);\r\n  event ChangeCustomTemplate(address newCustomTemplate);\r\n  event ChangeCustomMintableTemplate(address newCustomMintableTemplate);\r\n\r\n  // ============ Registry ============\r\n  // creator -> token address list\r\n  mapping(address => address[]) public _USER_STD_REGISTRY_;\r\n  mapping(address => address[]) public _USER_CUSTOM_REGISTRY_;\r\n  mapping(address => address[]) public _USER_CUSTOM_MINTABLE_REGISTRY_;\r\n\r\n  // ============ Functions ============\r\n\r\n  fallback() external payable {}\r\n\r\n  receive() external payable {}\r\n\r\n  constructor(\r\n    address cloneFactory,\r\n    address erc20Template,\r\n    address customErc20Template,\r\n    address customMintableErc20Template,\r\n    uint256 createFee\r\n  ) {\r\n    _CLONE_FACTORY_ = cloneFactory;\r\n    _ERC20_TEMPLATE_ = erc20Template;\r\n    _CUSTOM_ERC20_TEMPLATE_ = customErc20Template;\r\n    _CUSTOM_MINTABLE_ERC20_TEMPLATE_ = customMintableErc20Template;\r\n    _CREATE_FEE_ = createFee;\r\n  }\r\n\r\n  function createStdERC20(\r\n    uint256 totalSupply,\r\n    string memory name,\r\n    string memory symbol,\r\n    uint8 decimals\r\n  ) external payable returns (address newERC20) {\r\n    require(msg.value >= _CREATE_FEE_, 'CREATE_FEE_NOT_ENOUGH');\r\n    newERC20 = ICloneFactory(_CLONE_FACTORY_).clone(_ERC20_TEMPLATE_);\r\n    IStdERC20(newERC20).init(msg.sender, totalSupply, name, symbol, decimals);\r\n    _USER_STD_REGISTRY_[msg.sender].push(newERC20);\r\n    emit NewERC20(newERC20, msg.sender, 0);\r\n  }\r\n\r\n  function createCustomERC20(\r\n    uint256 totalSupply,\r\n    string memory name,\r\n    string memory symbol,\r\n    uint8 decimals,\r\n    uint256 tradeBurnRatio,\r\n    uint256 tradeFeeRatio,\r\n    address teamAccount\r\n  ) external payable returns (address newCustomERC20) {\r\n    require(msg.value >= _CREATE_FEE_, 'CREATE_FEE_NOT_ENOUGH');\r\n    newCustomERC20 = ICloneFactory(_CLONE_FACTORY_).clone(_CUSTOM_ERC20_TEMPLATE_);\r\n\r\n    ICustomERC20(newCustomERC20).init(\r\n      msg.sender,\r\n      totalSupply,\r\n      name,\r\n      symbol,\r\n      decimals,\r\n      tradeBurnRatio,\r\n      tradeFeeRatio,\r\n      teamAccount\r\n    );\r\n\r\n    _USER_CUSTOM_REGISTRY_[msg.sender].push(newCustomERC20);\r\n\r\n    emit NewERC20(newCustomERC20, msg.sender, 1);\r\n  }\r\n\r\n  function createCustomMintableERC20(\r\n    uint256 initSupply,\r\n    string memory name,\r\n    string memory symbol,\r\n    uint8 decimals,\r\n    uint256 tradeBurnRatio,\r\n    uint256 tradeFeeRatio,\r\n    address teamAccount\r\n  ) external payable returns (address newCustomMintableERC20) {\r\n    require(msg.value >= _CREATE_FEE_, 'CREATE_FEE_NOT_ENOUGH');\r\n    newCustomMintableERC20 = ICloneFactory(_CLONE_FACTORY_).clone(_CUSTOM_MINTABLE_ERC20_TEMPLATE_);\r\n\r\n    ICustomERC20(newCustomMintableERC20).init(\r\n      msg.sender,\r\n      initSupply,\r\n      name,\r\n      symbol,\r\n      decimals,\r\n      tradeBurnRatio,\r\n      tradeFeeRatio,\r\n      teamAccount\r\n    );\r\n\r\n    _USER_CUSTOM_MINTABLE_REGISTRY_[msg.sender].push(newCustomMintableERC20);\r\n\r\n    emit NewERC20(newCustomMintableERC20, msg.sender, 2);\r\n  }\r\n\r\n  // ============ View ============\r\n  function getTokenByUser(\r\n    address user\r\n  ) external view returns (address[] memory stds, address[] memory customs, address[] memory mintables) {\r\n    return (_USER_STD_REGISTRY_[user], _USER_CUSTOM_REGISTRY_[user], _USER_CUSTOM_MINTABLE_REGISTRY_[user]);\r\n  }\r\n\r\n  // ============ Ownable =============\r\n  function changeCreateFee(uint256 newFee) external onlyOwner {\r\n    _CREATE_FEE_ = newFee;\r\n    emit ChangeCreateFee(newFee);\r\n  }\r\n\r\n  function withdraw() external onlyOwner {\r\n    uint256 amount = address(this).balance;\r\n    payable(msg.sender).transfer(amount);\r\n    emit Withdraw(msg.sender, amount);\r\n  }\r\n\r\n  function updateStdTemplate(address newStdTemplate) external onlyOwner {\r\n    _ERC20_TEMPLATE_ = newStdTemplate;\r\n    emit ChangeStdTemplate(newStdTemplate);\r\n  }\r\n\r\n  function updateCustomTemplate(address newCustomTemplate) external onlyOwner {\r\n    _CUSTOM_ERC20_TEMPLATE_ = newCustomTemplate;\r\n    emit ChangeCustomTemplate(newCustomTemplate);\r\n  }\r\n\r\n  function updateCustomMintableTemplate(address newCustomMintableTemplate) external onlyOwner {\r\n    _CUSTOM_MINTABLE_ERC20_TEMPLATE_ = newCustomMintableTemplate;\r\n    emit ChangeCustomMintableTemplate(newCustomMintableTemplate);\r\n  }\r\n}\r\n",
  "sourcePath": "E:\\git_2023\\tintin-lesson-7\\truffle\\contracts\\Lesson7ERC20V3Factory.sol",
  "compiler": {
    "name": "solc",
    "version": "0.8.19+commit.7dd6d404.Emscripten.clang"
  },
  "schemaVersion": "3.4.13",
  "updatedAt": "2023-04-27T04:01:37.850Z",
  "devdoc": {
    "author": "DODO Breeder",
    "kind": "dev",
    "methods": {},
    "title": "DODO ERC20V2Factory",
    "version": 1
  },
  "userdoc": {
    "kind": "user",
    "methods": {},
    "notice": "Help user to create erc20 token",
    "version": 1
  }
}